14:00:29.175854 IP (tos 0x0, ttl 64, id 30701, offset 0, flags [DF], proto ICMP (1), length 84)
    192.0.2.17 > 192.0.2.24: ICMP echo request, id 190, seq 48, length 64
	0x0000:  4500 0054 77ed 4000 4001 3e92 c000 0211  E..Tw.@.@.>.....
	0x0010:  c000 0218 0800 3992 00be 0030 fd9b 3062  ......9....0..0b
	0x0020:  0000 0000 ceae 0200 0000 0000 1011 1213  ................
	0x0030:  1415 1617 1819 1a1b 1c1d 1e1f 2021 2223  .............!"#
	0x0040:  2425 2627 2829 2a2b 2c2d 2e2f 3031 3233  $%&'()*+,-./0123
	0x0050:  3435 3637                                4567
14:00:29.175869 IP (tos 0x0, ttl 64, id 6792, offset 0, flags [none], proto ICMP (1), length 84)
    192.0.2.24 > 192.0.2.17: ICMP echo reply, id 190, seq 48, length 64
	0x0000:  4500 0054 1a88 0000 4001 dbf7 c000 0218  E..T....@.......
	0x0010:  c000 0211 0000 4192 00be 0030 fd9b 3062  ......A....0..0b
	0x0020:  0000 0000 ceae 0200 0000 0000 1011 1213  ................
	0x0030:  1415 1617 1819 1a1b 1c1d 1e1f 2021 2223  .............!"#
	0x0040:  2425 2627 2829 2a2b 2c2d 2e2f 3031 3233  $%&'()*+,-./0123
	0x0050:  3435 3637                                4567
14:00:30.200193 IP (tos 0x0, ttl 64, id 30932, offset 0, flags [DF], proto ICMP (1), length 84)
    192.0.2.17 > 192.0.2.24: ICMP echo request, id 190, seq 49, length 64
	0x0000:  4500 0054 78d4 4000 4001 3dab c000 0211  E..Tx.@.@.=.....
	0x0010:  c000 0218 0800 2632 00be 0031 fe9b 3062  ......&2...1..0b
	0x0020:  0000 0000 e00d 0300 0000 0000 1011 1213  ................
	0x0030:  1415 1617 1819 1a1b 1c1d 1e1f 2021 2223  .............!"#
	0x0040:  2425 2627 2829 2a2b 2c2d 2e2f 3031 3233  $%&'()*+,-./0123
	0x0050:  3435 3637                                4567
14:00:30.200208 IP (tos 0x0, ttl 64, id 7003, offset 0, flags [none], proto ICMP (1), length 84)
    192.0.2.24 > 192.0.2.17: ICMP echo reply, id 190, seq 49, length 64
	0x0000:  4500 0054 1b5b 0000 4001 db24 c000 0218  E..T.[..@..$....
	0x0010:  c000 0211 0000 2e32 00be 0031 fe9b 3062  .......2...1..0b
	0x0020:  0000 0000 e00d 0300 0000 0000 1011 1213  ................
	0x0030:  1415 1617 1819 1a1b 1c1d 1e1f 2021 2223  .............!"#
	0x0040:  2425 2627 2829 2a2b 2c2d 2e2f 3031 3233  $%&'()*+,-./0123
	0x0050:  3435 3637                                4567
14:00:31.223839 IP (tos 0x0, ttl 64, id 31012, offset 0, flags [DF], proto ICMP (1), length 84)
    192.0.2.17 > 192.0.2.24: ICMP echo request, id 190, seq 50, length 64
	0x0000:  4500 0054 7924 4000 4001 3d5b c000 0211  E..Ty$@.@.=[....
	0x0010:  c000 0218 0800 f9d4 00be 0032 ff9b 3062  ...........2..0b
	0x0020:  0000 0000 0b6a 0300 0000 0000 1011 1213  .....j..........
	0x0030:  1415 1617 1819 1a1b 1c1d 1e1f 2021 2223  .............!"#
	0x0040:  2425 2627 2829 2a2b 2c2d 2e2f 3031 3233  $%&'()*+,-./0123
	0x0050:  3435 3637                                4567
14:00:31.223882 IP (tos 0x0, ttl 64, id 7175, offset 0, flags [none], proto ICMP (1), length 84)
    192.0.2.24 > 192.0.2.17: ICMP echo reply, id 190, seq 50, length 64
	0x0000:  4500 0054 1c07 0000 4001 da78 c000 0218  E..T....@..x....
	0x0010:  c000 0211 0000 01d5 00be 0032 ff9b 3062  ...........2..0b
	0x0020:  0000 0000 0b6a 0300 0000 0000 1011 1213  .....j..........
	0x0030:  1415 1617 1819 1a1b 1c1d 1e1f 2021 2223  .............!"#
	0x0040:  2425 2627 2829 2a2b 2c2d 2e2f 3031 3233  $%&'()*+,-./0123
	0x0050:  3435 3637                                4567
14:00:32.247642 IP (tos 0x0, ttl 64, id 31178, offset 0, flags [DF], proto ICMP (1), length 84)
    192.0.2.17 > 192.0.2.24: ICMP echo request, id 190, seq 51, length 64
	0x0000:  4500 0054 79ca 4000 4001 3cb5 c000 0211  E..Ty.@.@.<.....
	0x0010:  c000 0218 0800 f076 00be 0033 009c 3062  .......v...3..0b
	0x0020:  0000 0000 13c7 0300 0000 0000 1011 1213  ................
	0x0030:  1415 1617 1819 1a1b 1c1d 1e1f 2021 2223  .............!"#
	0x0040:  2425 2627 2829 2a2b 2c2d 2e2f 3031 3233  $%&'()*+,-./0123
	0x0050:  3435 3637                                4567
14:00:32.247674 IP (tos 0x0, ttl 64, id 7317, offset 0, flags [none], proto ICMP (1), length 84)
    192.0.2.24 > 192.0.2.17: ICMP echo reply, id 190, seq 51, length 64
	0x0000:  4500 0054 1c95 0000 4001 d9ea c000 0218  E..T....@.......
	0x0010:  c000 0211 0000 f876 00be 0033 009c 3062  .......v...3..0b
	0x0020:  0000 0000 13c7 0300 0000 0000 1011 1213  ................
	0x0030:  1415 1617 1819 1a1b 1c1d 1e1f 2021 2223  .............!"#
	0x0040:  2425 2627 2829 2a2b 2c2d 2e2f 3031 3233  $%&'()*+,-./0123
	0x0050:  3435 3637                                4567
14:00:33.272375 IP (tos 0x0, ttl 64, id 31221, offset 0, flags [DF], proto ICMP (1), length 84)
    192.0.2.17 > 192.0.2.24: ICMP echo request, id 190, seq 52, length 64
	0x0000:  4500 0054 79f5 4000 4001 3c8a c000 0211  E..Ty.@.@.<.....
	0x0010:  c000 0218 0800 5815 00be 0034 019c 3062  ......X....4..0b
	0x0020:  0000 0000 aa27 0400 0000 0000 1011 1213  .....'..........
	0x0030:  1415 1617 1819 1a1b 1c1d 1e1f 2021 2223  .............!"#
	0x0040:  2425 2627 2829 2a2b 2c2d 2e2f 3031 3233  $%&'()*+,-./0123
	0x0050:  3435 3637                                4567
14:00:33.272410 IP (tos 0x0, ttl 64, id 7543, offset 0, flags [none], proto ICMP (1), length 84)
    192.0.2.24 > 192.0.2.17: ICMP echo reply, id 190, seq 52, length 64
	0x0000:  4500 0054 1d77 0000 4001 d908 c000 0218  E..T.w..@.......
	0x0010:  c000 0211 0000 6015 00be 0034 019c 3062  ......`....4..0b
	0x0020:  0000 0000 aa27 0400 0000 0000 1011 1213  .....'..........
	0x0030:  1415 1617 1819 1a1b 1c1d 1e1f 2021 2223  .............!"#
	0x0040:  2425 2627 2829 2a2b 2c2d 2e2f 3031 3233  $%&'()*+,-./0123
	0x0050:  3435 3637                                4567
14:00:34.295601 IP (tos 0x0, ttl 64, id 31469, offset 0, flags [DF], proto ICMP (1), length 84)
    192.0.2.17 > 192.0.2.24: ICMP echo request, id 190, seq 53, length 64
	0x0000:  4500 0054 7aed 4000 4001 3b92 c000 0211  E..Tz.@.@.;.....
	0x0010:  c000 0218 0800 95b9 00be 0035 029c 3062  ...........5..0b
	0x0020:  0000 0000 6b82 0400 0000 0000 1011 1213  ....k...........
	0x0030:  1415 1617 1819 1a1b 1c1d 1e1f 2021 2223  .............!"#
	0x0040:  2425 2627 2829 2a2b 2c2d 2e2f 3031 3233  $%&'()*+,-./0123
	0x0050:  3435 3637                                4567
14:00:34.295635 IP (tos 0x0, ttl 64, id 7623, offset 0, flags [none], proto ICMP (1), length 84)
    192.0.2.24 > 192.0.2.17: ICMP echo reply, id 190, seq 53, length 64
	0x0000:  4500 0054 1dc7 0000 4001 d8b8 c000 0218  E..T....@.......
	0x0010:  c000 0211 0000 9db9 00be 0035 029c 3062  ...........5..0b
	0x0020:  0000 0000 6b82 0400 0000 0000 1011 1213  ....k...........
	0x0030:  1415 1617 1819 1a1b 1c1d 1e1f 2021 2223  .............!"#
	0x0040:  2425 2627 2829 2a2b 2c2d 2e2f 3031 3233  $%&'()*+,-./0123
	0x0050:  3435 3637                                4567
14:00:35.319637 IP (tos 0x0, ttl 64, id 31650, offset 0, flags [DF], proto ICMP (1), length 84)
    192.0.2.17 > 192.0.2.24: ICMP echo request, id 190, seq 54, length 64
	0x0000:  4500 0054 7ba2 4000 4001 3add c000 0211  E..T{.@.@.:.....
	0x0010:  c000 0218 0800 b35a 00be 0036 039c 3062  .......Z...6..0b
	0x0020:  0000 0000 4ce0 0400 0000 0000 1011 1213  ....L...........
	0x0030:  1415 1617 1819 1a1b 1c1d 1e1f 2021 2223  .............!"#
	0x0040:  2425 2627 2829 2a2b 2c2d 2e2f 3031 3233  $%&'()*+,-./0123
	0x0050:  3435 3637                                4567
14:00:35.319669 IP (tos 0x0, ttl 64, id 7842, offset 0, flags [none], proto ICMP (1), length 84)
    192.0.2.24 > 192.0.2.17: ICMP echo reply, id 190, seq 54, length 64
	0x0000:  4500 0054 1ea2 0000 4001 d7dd c000 0218  E..T....@.......
	0x0010:  c000 0211 0000 bb5a 00be 0036 039c 3062  .......Z...6..0b
	0x0020:  0000 0000 4ce0 0400 0000 0000 1011 1213  ....L...........
	0x0030:  1415 1617 1819 1a1b 1c1d 1e1f 2021 2223  .............!"#
	0x0040:  2425 2627 2829 2a2b 2c2d 2e2f 3031 3233  $%&'()*+,-./0123
	0x0050:  3435 3637                                4567
14:00:36.344230 IP (tos 0x0, ttl 64, id 31683, offset 0, flags [DF], proto ICMP (1), length 84)
    192.0.2.17 > 192.0.2.24: ICMP echo request, id 190, seq 55, length 64
	0x0000:  4500 0054 7bc3 4000 4001 3abc c000 0211  E..T{.@.@.:.....
	0x0010:  c000 0218 0800 a1f9 00be 0037 049c 3062  ...........7..0b
	0x0020:  0000 0000 5c40 0500 0000 0000 1011 1213  ....\@..........
	0x0030:  1415 1617 1819 1a1b 1c1d 1e1f 2021 2223  .............!"#
	0x0040:  2425 2627 2829 2a2b 2c2d 2e2f 3031 3233  $%&'()*+,-./0123
	0x0050:  3435 3637                                4567
14:00:36.344263 IP (tos 0x0, ttl 64, id 8044, offset 0, flags [none], proto ICMP (1), length 84)
    192.0.2.24 > 192.0.2.17: ICMP echo reply, id 190, seq 55, length 64
	0x0000:  4500 0054 1f6c 0000 4001 d713 c000 0218  E..T.l..@.......
	0x0010:  c000 0211 0000 a9f9 00be 0037 049c 3062  ...........7..0b
	0x0020:  0000 0000 5c40 0500 0000 0000 1011 1213  ....\@..........
	0x0030:  1415 1617 1819 1a1b 1c1d 1e1f 2021 2223  .............!"#
	0x0040:  2425 2627 2829 2a2b 2c2d 2e2f 3031 3233  $%&'()*+,-./0123
	0x0050:  3435 3637                                4567
14:00:37.367644 IP (tos 0x0, ttl 64, id 31719, offset 0, flags [DF], proto ICMP (1), length 84)
    192.0.2.17 > 192.0.2.24: ICMP echo request, id 190, seq 56, length 64
	0x0000:  4500 0054 7be7 4000 4001 3a98 c000 0211  E..T{.@.@.:.....
	0x0010:  c000 0218 0800 2a9d 00be 0038 059c 3062  ......*....8..0b
	0x0020:  0000 0000 d29b 0500 0000 0000 1011 1213  ................
	0x0030:  1415 1617 1819 1a1b 1c1d 1e1f 2021 2223  .............!"#
	0x0040:  2425 2627 2829 2a2b 2c2d 2e2f 3031 3233  $%&'()*+,-./0123
	0x0050:  3435 3637                                4567
14:00:37.367678 IP (tos 0x0, ttl 64, id 8287, offset 0, flags [none], proto ICMP (1), length 84)
    192.0.2.24 > 192.0.2.17: ICMP echo reply, id 190, seq 56, length 64
	0x0000:  4500 0054 205f 0000 4001 d620 c000 0218  E..T._..@.......
	0x0010:  c000 0211 0000 329d 00be 0038 059c 3062  ......2....8..0b
	0x0020:  0000 0000 d29b 0500 0000 0000 1011 1213  ................
	0x0030:  1415 1617 1819 1a1b 1c1d 1e1f 2021 2223  .............!"#
	0x0040:  2425 2627 2829 2a2b 2c2d 2e2f 3031 3233  $%&'()*+,-./0123
	0x0050:  3435 3637                                4567
14:00:38.391774 IP (tos 0x0, ttl 64, id 31732, offset 0, flags [DF], proto ICMP (1), length 84)
    192.0.2.17 > 192.0.2.24: ICMP echo request, id 190, seq 57, length 64
	0x0000:  4500 0054 7bf4 4000 4001 3a8b c000 0211  E..T{.@.@.:.....
	0x0010:  c000 0218 0800 e83d 00be 0039 069c 3062  .......=...9..0b
	0x0020:  0000 0000 13fa 0500 0000 0000 1011 1213  ................
	0x0030:  1415 1617 1819 1a1b 1c1d 1e1f 2021 2223  .............!"#
	0x0040:  2425 2627 2829 2a2b 2c2d 2e2f 3031 3233  $%&'()*+,-./0123
	0x0050:  3435 3637                                4567
14:00:38.391806 IP (tos 0x0, ttl 64, id 8306, offset 0, flags [none], proto ICMP (1), length 84)
    192.0.2.24 > 192.0.2.17: ICMP echo reply, id 190, seq 57, length 64
	0x0000:  4500 0054 2072 0000 4001 d60d c000 0218  E..T.r..@.......
	0x0010:  c000 0211 0000 f03d 00be 0039 069c 3062  .......=...9..0b
	0x0020:  0000 0000 13fa 0500 0000 0000 1011 1213  ................
	0x0030:  1415 1617 1819 1a1b 1c1d 1e1f 2021 2223  .............!"#
	0x0040:  2425 2627 2829 2a2b 2c2d 2e2f 3031 3233  $%&'()*+,-./0123
	0x0050:  3435 3637                                4567
14:00:39.415833 IP (tos 0x0, ttl 64, id 31825, offset 0, flags [DF], proto ICMP (1), length 84)
    192.0.2.17 > 192.0.2.24: ICMP echo request, id 190, seq 58, length 64
	0x0000:  4500 0054 7c51 4000 4001 3a2e c000 0211  E..T|Q@.@.:.....
	0x0010:  c000 0218 0800 c4de 00be 003a 079c 3062  ...........:..0b
	0x0020:  0000 0000 3558 0600 0000 0000 1011 1213  ....5X..........
	0x0030:  1415 1617 1819 1a1b 1c1d 1e1f 2021 2223  .............!"#
	0x0040:  2425 2627 2829 2a2b 2c2d 2e2f 3031 3233  $%&'()*+,-./0123
	0x0050:  3435 3637                                4567
14:00:39.415848 IP (tos 0x0, ttl 64, id 8510, offset 0, flags [none], proto ICMP (1), length 84)
    192.0.2.24 > 192.0.2.17: ICMP echo reply, id 190, seq 58, length 64
	0x0000:  4500 0054 213e 0000 4001 d541 c000 0218  E..T!>..@..A....
	0x0010:  c000 0211 0000 ccde 00be 003a 079c 3062  ...........:..0b
	0x0020:  0000 0000 3558 0600 0000 0000 1011 1213  ....5X..........
	0x0030:  1415 1617 1819 1a1b 1c1d 1e1f 2021 2223  .............!"#
	0x0040:  2425 2627 2829 2a2b 2c2d 2e2f 3031 3233  $%&'()*+,-./0123
	0x0050:  3435 3637                                4567
14:00:40.439668 IP (tos 0x0, ttl 64, id 31897, offset 0, flags [DF], proto ICMP (1), length 84)
    192.0.2.17 > 192.0.2.24: ICMP echo request, id 190, seq 59, length 64
	0x0000:  4500 0054 7c99 4000 4001 39e6 c000 0211  E..T|.@.@.9.....
	0x0010:  c000 0218 0800 a580 00be 003b 089c 3062  ...........;..0b
	0x0020:  0000 0000 53b5 0600 0000 0000 1011 1213  ....S...........
	0x0030:  1415 1617 1819 1a1b 1c1d 1e1f 2021 2223  .............!"#
	0x0040:  2425 2627 2829 2a2b 2c2d 2e2f 3031 3233  $%&'()*+,-./0123
	0x0050:  3435 3637                                4567
14:00:40.439681 IP (tos 0x0, ttl 64, id 8666, offset 0, flags [none], proto ICMP (1), length 84)
    192.0.2.24 > 192.0.2.17: ICMP echo reply, id 190, seq 59, length 64
	0x0000:  4500 0054 21da 0000 4001 d4a5 c000 0218  E..T!...@.......
	0x0010:  c000 0211 0000 ad80 00be 003b 089c 3062  ...........;..0b
	0x0020:  0000 0000 53b5 0600 0000 0000 1011 1213  ....S...........
	0x0030:  1415 1617 1819 1a1b 1c1d 1e1f 2021 2223  .............!"#
	0x0040:  2425 2627 2829 2a2b 2c2d 2e2f 3031 3233  $%&'()*+,-./0123
	0x0050:  3435 3637                                4567
14:00:41.463688 IP (tos 0x0, ttl 64, id 32053, offset 0, flags [DF], proto ICMP (1), length 84)
    192.0.2.17 > 192.0.2.24: ICMP echo request, id 190, seq 60, length 64
	0x0000:  4500 0054 7d35 4000 4001 394a c000 0211  E..T}5@.@.9J....
	0x0010:  c000 0218 0800 f521 00be 003c 099c 3062  .......!...<..0b
	0x0020:  0000 0000 0213 0700 0000 0000 1011 1213  ................
	0x0030:  1415 1617 1819 1a1b 1c1d 1e1f 2021 2223  .............!"#
	0x0040:  2425 2627 2829 2a2b 2c2d 2e2f 3031 3233  $%&'()*+,-./0123
	0x0050:  3435 3637                                4567
14:00:41.463720 IP (tos 0x0, ttl 64, id 8867, offset 0, flags [none], proto ICMP (1), length 84)
    192.0.2.24 > 192.0.2.17: ICMP echo reply, id 190, seq 60, length 64
	0x0000:  4500 0054 22a3 0000 4001 d3dc c000 0218  E..T"...@.......
	0x0010:  c000 0211 0000 fd21 00be 003c 099c 3062  .......!...<..0b
	0x0020:  0000 0000 0213 0700 0000 0000 1011 1213  ................
	0x0030:  1415 1617 1819 1a1b 1c1d 1e1f 2021 2223  .............!"#
	0x0040:  2425 2627 2829 2a2b 2c2d 2e2f 3031 3233  $%&'()*+,-./0123
	0x0050:  3435 3637                                4567
14:00:42.488235 IP (tos 0x0, ttl 64, id 32259, offset 0, flags [DF], proto ICMP (1), length 84)
    192.0.2.17 > 192.0.2.24: ICMP echo request, id 190, seq 61, length 64
	0x0000:  4500 0054 7e03 4000 4001 387c c000 0211  E..T~.@.@.8|....
	0x0010:  c000 0218 0800 11c1 00be 003d 0a9c 3062  ...........=..0b
	0x0020:  0000 0000 e472 0700 0000 0000 1011 1213  .....r..........
	0x0030:  1415 1617 1819 1a1b 1c1d 1e1f 2021 2223  .............!"#
	0x0040:  2425 2627 2829 2a2b 2c2d 2e2f 3031 3233  $%&'()*+,-./0123
	0x0050:  3435 3637                                4567
14:00:42.488267 IP (tos 0x0, ttl 64, id 8886, offset 0, flags [none], proto ICMP (1), length 84)
    192.0.2.24 > 192.0.2.17: ICMP echo reply, id 190, seq 61, length 64
	0x0000:  4500 0054 22b6 0000 4001 d3c9 c000 0218  E..T"...@.......
	0x0010:  c000 0211 0000 19c1 00be 003d 0a9c 3062  ...........=..0b
	0x0020:  0000 0000 e472 0700 0000 0000 1011 1213  .....r..........
	0x0030:  1415 1617 1819 1a1b 1c1d 1e1f 2021 2223  .............!"#
	0x0040:  2425 2627 2829 2a2b 2c2d 2e2f 3031 3233  $%&'()*+,-./0123
	0x0050:  3435 3637                                4567
14:00:43.511641 IP (tos 0x0, ttl 64, id 32345, offset 0, flags [DF], proto ICMP (1), length 84)
    192.0.2.17 > 192.0.2.24: ICMP echo request, id 190, seq 62, length 64
	0x0000:  4500 0054 7e59 4000 4001 3826 c000 0211  E..T~Y@.@.8&....
	0x0010:  c000 0218 0800 a064 00be 003e 0b9c 3062  .......d...>..0b
	0x0020:  0000 0000 54ce 0700 0000 0000 1011 1213  ....T...........
	0x0030:  1415 1617 1819 1a1b 1c1d 1e1f 2021 2223  .............!"#
	0x0040:  2425 2627 2829 2a2b 2c2d 2e2f 3031 3233  $%&'()*+,-./0123
	0x0050:  3435 3637                                4567
14:00:43.511672 IP (tos 0x0, ttl 64, id 9126, offset 0, flags [none], proto ICMP (1), length 84)
    192.0.2.24 > 192.0.2.17: ICMP echo reply, id 190, seq 62, length 64
	0x0000:  4500 0054 23a6 0000 4001 d2d9 c000 0218  E..T#...@.......
	0x0010:  c000 0211 0000 a864 00be 003e 0b9c 3062  .......d...>..0b
	0x0020:  0000 0000 54ce 0700 0000 0000 1011 1213  ....T...........
	0x0030:  1415 1617 1819 1a1b 1c1d 1e1f 2021 2223  .............!"#
	0x0040:  2425 2627 2829 2a2b 2c2d 2e2f 3031 3233  $%&'()*+,-./0123
	0x0050:  3435 3637                                4567
14:00:44.535659 IP (tos 0x0, ttl 64, id 32548, offset 0, flags [DF], proto ICMP (1), length 84)
    192.0.2.17 > 192.0.2.24: ICMP echo request, id 190, seq 63, length 64
	0x0000:  4500 0054 7f24 4000 4001 375b c000 0211  E..T.$@.@.7[....
	0x0010:  c000 0218 0800 d405 00be 003f 0c9c 3062  ...........?..0b
	0x0020:  0000 0000 1f2c 0800 0000 0000 1011 1213  .....,..........
	0x0030:  1415 1617 1819 1a1b 1c1d 1e1f 2021 2223  .............!"#
	0x0040:  2425 2627 2829 2a2b 2c2d 2e2f 3031 3233  $%&'()*+,-./0123
	0x0050:  3435 3637                                4567
14:00:44.535693 IP (tos 0x0, ttl 64, id 9324, offset 0, flags [none], proto ICMP (1), length 84)
    192.0.2.24 > 192.0.2.17: ICMP echo reply, id 190, seq 63, length 64
	0x0000:  4500 0054 246c 0000 4001 d213 c000 0218  E..T$l..@.......
	0x0010:  c000 0211 0000 dc05 00be 003f 0c9c 3062  ...........?..0b
	0x0020:  0000 0000 1f2c 0800 0000 0000 1011 1213  .....,..........
	0x0030:  1415 1617 1819 1a1b 1c1d 1e1f 2021 2223  .............!"#
	0x0040:  2425 2627 2829 2a2b 2c2d 2e2f 3031 3233  $%&'()*+,-./0123
	0x0050:  3435 3637                                4567
14:00:45.559951 IP (tos 0x0, ttl 64, id 32789, offset 0, flags [DF], proto ICMP (1), length 84)
    192.0.2.17 > 192.0.2.24: ICMP echo request, id 190, seq 64, length 64
	0x0000:  4500 0054 8015 4000 4001 366a c000 0211  E..T..@.@.6j....
	0x0010:  c000 0218 0800 f0a5 00be 0040 0d9c 3062  ...........@..0b
	0x0020:  0000 0000 018b 0800 0000 0000 1011 1213  ................
	0x0030:  1415 1617 1819 1a1b 1c1d 1e1f 2021 2223  .............!"#
	0x0040:  2425 2627 2829 2a2b 2c2d 2e2f 3031 3233  $%&'()*+,-./0123
	0x0050:  3435 3637                                4567
14:00:45.559986 IP (tos 0x0, ttl 64, id 9404, offset 0, flags [none], proto ICMP (1), length 84)
    192.0.2.24 > 192.0.2.17: ICMP echo reply, id 190, seq 64, length 64
	0x0000:  4500 0054 24bc 0000 4001 d1c3 c000 0218  E..T$...@.......
	0x0010:  c000 0211 0000 f8a5 00be 0040 0d9c 3062  ...........@..0b
	0x0020:  0000 0000 018b 0800 0000 0000 1011 1213  ................
	0x0030:  1415 1617 1819 1a1b 1c1d 1e1f 2021 2223  .............!"#
	0x0040:  2425 2627 2829 2a2b 2c2d 2e2f 3031 3233  $%&'()*+,-./0123
	0x0050:  3435 3637                                4567
14:00:46.583757 IP (tos 0x0, ttl 64, id 32851, offset 0, flags [DF], proto ICMP (1), length 84)
    192.0.2.17 > 192.0.2.24: ICMP echo request, id 190, seq 65, length 64
	0x0000:  4500 0054 8053 4000 4001 362c c000 0211  E..T.S@.@.6,....
	0x0010:  c000 0218 0800 e947 00be 0041 0e9c 3062  .......G...A..0b
	0x0020:  0000 0000 07e8 0800 0000 0000 1011 1213  ................
	0x0030:  1415 1617 1819 1a1b 1c1d 1e1f 2021 2223  .............!"#
	0x0040:  2425 2627 2829 2a2b 2c2d 2e2f 3031 3233  $%&'()*+,-./0123
	0x0050:  3435 3637                                4567
14:00:46.583794 IP (tos 0x0, ttl 64, id 9605, offset 0, flags [none], proto ICMP (1), length 84)
    192.0.2.24 > 192.0.2.17: ICMP echo reply, id 190, seq 65, length 64
	0x0000:  4500 0054 2585 0000 4001 d0fa c000 0218  E..T%...@.......
	0x0010:  c000 0211 0000 f147 00be 0041 0e9c 3062  .......G...A..0b
	0x0020:  0000 0000 07e8 0800 0000 0000 1011 1213  ................
	0x0030:  1415 1617 1819 1a1b 1c1d 1e1f 2021 2223  .............!"#
	0x0040:  2425 2627 2829 2a2b 2c2d 2e2f 3031 3233  $%&'()*+,-./0123
	0x0050:  3435 3637                                4567
14:00:47.608190 IP (tos 0x0, ttl 64, id 33062, offset 0, flags [DF], proto ICMP (1), length 84)
    192.0.2.17 > 192.0.2.24: ICMP echo request, id 190, seq 66, length 64
	0x0000:  4500 0054 8126 4000 4001 3559 c000 0211  E..T.&@.@.5Y....
	0x0010:  c000 0218 0800 7de7 00be 0042 0f9c 3062  ......}....B..0b
	0x0020:  0000 0000 7147 0900 0000 0000 1011 1213  ....qG..........
	0x0030:  1415 1617 1819 1a1b 1c1d 1e1f 2021 2223  .............!"#
	0x0040:  2425 2627 2829 2a2b 2c2d 2e2f 3031 3233  $%&'()*+,-./0123
	0x0050:  3435 3637                                4567
14:00:47.608224 IP (tos 0x0, ttl 64, id 9704, offset 0, flags [none], proto ICMP (1), length 84)
    192.0.2.24 > 192.0.2.17: ICMP echo reply, id 190, seq 66, length 64
	0x0000:  4500 0054 25e8 0000 4001 d097 c000 0218  E..T%...@.......
	0x0010:  c000 0211 0000 85e7 00be 0042 0f9c 3062  ...........B..0b
	0x0020:  0000 0000 7147 0900 0000 0000 1011 1213  ....qG..........
	0x0030:  1415 1617 1819 1a1b 1c1d 1e1f 2021 2223  .............!"#
	0x0040:  2425 2627 2829 2a2b 2c2d 2e2f 3031 3233  $%&'()*+,-./0123
	0x0050:  3435 3637                                4567
14:00:48.632699 IP (tos 0x0, ttl 64, id 33207, offset 0, flags [DF], proto ICMP (1), length 84)
    192.0.2.17 > 192.0.2.24: ICMP echo request, id 190, seq 67, length 64
	0x0000:  4500 0054 81b7 4000 4001 34c8 c000 0211  E..T..@.@.4.....
	0x0010:  c000 0218 0800 c186 00be 0043 109c 3062  ...........C..0b
	0x0020:  0000 0000 2ca7 0900 0000 0000 1011 1213  ....,...........
	0x0030:  1415 1617 1819 1a1b 1c1d 1e1f 2021 2223  .............!"#
	0x0040:  2425 2627 2829 2a2b 2c2d 2e2f 3031 3233  $%&'()*+,-./0123
	0x0050:  3435 3637                                4567
14:00:48.632734 IP (tos 0x0, ttl 64, id 9859, offset 0, flags [none], proto ICMP (1), length 84)
    192.0.2.24 > 192.0.2.17: ICMP echo reply, id 190, seq 67, length 64
	0x0000:  4500 0054 2683 0000 4001 cffc c000 0218  E..T&...@.......
	0x0010:  c000 0211 0000 c986 00be 0043 109c 3062  ...........C..0b
	0x0020:  0000 0000 2ca7 0900 0000 0000 1011 1213  ....,...........
	0x0030:  1415 1617 1819 1a1b 1c1d 1e1f 2021 2223  .............!"#
	0x0040:  2425 2627 2829 2a2b 2c2d 2e2f 3031 3233  $%&'()*+,-./0123
	0x0050:  3435 3637                                4567
14:00:49.655925 IP (tos 0x0, ttl 64, id 33286, offset 0, flags [DF], proto ICMP (1), length 84)
    192.0.2.17 > 192.0.2.24: ICMP echo request, id 190, seq 68, length 64
	0x0000:  4500 0054 8206 4000 4001 3479 c000 0211  E..T..@.@.4y....
	0x0010:  c000 0218 0800 e92a 00be 0044 119c 3062  .......*...D..0b
	0x0020:  0000 0000 0302 0a00 0000 0000 1011 1213  ................
	0x0030:  1415 1617 1819 1a1b 1c1d 1e1f 2021 2223  .............!"#
	0x0040:  2425 2627 2829 2a2b 2c2d 2e2f 3031 3233  $%&'()*+,-./0123
	0x0050:  3435 3637                                4567
14:00:49.655950 IP (tos 0x0, ttl 64, id 10059, offset 0, flags [none], proto ICMP (1), length 84)
    192.0.2.24 > 192.0.2.17: ICMP echo reply, id 190, seq 68, length 64
	0x0000:  4500 0054 274b 0000 4001 cf34 c000 0218  E..T'K..@..4....
	0x0010:  c000 0211 0000 f12a 00be 0044 119c 3062  .......*...D..0b
	0x0020:  0000 0000 0302 0a00 0000 0000 1011 1213  ................
	0x0030:  1415 1617 1819 1a1b 1c1d 1e1f 2021 2223  .............!"#
	0x0040:  2425 2627 2829 2a2b 2c2d 2e2f 3031 3233  $%&'()*+,-./0123
	0x0050:  3435 3637                                4567
14:00:50.680009 IP (tos 0x0, ttl 64, id 33409, offset 0, flags [DF], proto ICMP (1), length 84)
    192.0.2.17 > 192.0.2.24: ICMP echo request, id 190, seq 69, length 64
	0x0000:  4500 0054 8281 4000 4001 33fe c000 0211  E..T..@.@.3.....
	0x0010:  c000 0218 0800 c3cb 00be 0045 129c 3062  ...........E..0b
	0x0020:  0000 0000 2760 0a00 0000 0000 1011 1213  ....'`..........
	0x0030:  1415 1617 1819 1a1b 1c1d 1e1f 2021 2223  .............!"#
	0x0040:  2425 2627 2829 2a2b 2c2d 2e2f 3031 3233  $%&'()*+,-./0123
	0x0050:  3435 3637                                4567
14:00:50.680024 IP (tos 0x0, ttl 64, id 10194, offset 0, flags [none], proto ICMP (1), length 84)
    192.0.2.24 > 192.0.2.17: ICMP echo reply, id 190, seq 69, length 64
	0x0000:  4500 0054 27d2 0000 4001 cead c000 0218  E..T'...@.......
	0x0010:  c000 0211 0000 cbcb 00be 0045 129c 3062  ...........E..0b
	0x0020:  0000 0000 2760 0a00 0000 0000 1011 1213  ....'`..........
	0x0030:  1415 1617 1819 1a1b 1c1d 1e1f 2021 2223  .............!"#
	0x0040:  2425 2627 2829 2a2b 2c2d 2e2f 3031 3233  $%&'()*+,-./0123
	0x0050:  3435 3637                                4567
14:00:51.703634 IP (tos 0x0, ttl 64, id 33477, offset 0, flags [DF], proto ICMP (1), length 84)
    192.0.2.17 > 192.0.2.24: ICMP echo request, id 190, seq 70, length 64
	0x0000:  4500 0054 82c5 4000 4001 33ba c000 0211  E..T..@.@.3.....
	0x0010:  c000 0218 0800 a46e 00be 0046 139c 3062  .......n...F..0b
	0x0020:  0000 0000 45bc 0a00 0000 0000 1011 1213  ....E...........
	0x0030:  1415 1617 1819 1a1b 1c1d 1e1f 2021 2223  .............!"#
	0x0040:  2425 2627 2829 2a2b 2c2d 2e2f 3031 3233  $%&'()*+,-./0123
	0x0050:  3435 3637                                4567
14:00:51.703668 IP (tos 0x0, ttl 64, id 10340, offset 0, flags [none], proto ICMP (1), length 84)
    192.0.2.24 > 192.0.2.17: ICMP echo reply, id 190, seq 70, length 64
	0x0000:  4500 0054 2864 0000 4001 ce1b c000 0218  E..T(d..@.......
	0x0010:  c000 0211 0000 ac6e 00be 0046 139c 3062  .......n...F..0b
	0x0020:  0000 0000 45bc 0a00 0000 0000 1011 1213  ....E...........
	0x0030:  1415 1617 1819 1a1b 1c1d 1e1f 2021 2223  .............!"#
	0x0040:  2425 2627 2829 2a2b 2c2d 2e2f 3031 3233  $%&'()*+,-./0123
	0x0050:  3435 3637                                4567
14:00:52.727845 IP (tos 0x0, ttl 64, id 33515, offset 0, flags [DF], proto ICMP (1), length 84)
    192.0.2.17 > 192.0.2.24: ICMP echo request, id 190, seq 71, length 64
	0x0000:  4500 0054 82eb 4000 4001 3394 c000 0211  E..T..@.@.3.....
	0x0010:  c000 0218 0800 0c0f 00be 0047 149c 3062  ...........G..0b
	0x0020:  0000 0000 dc1a 0b00 0000 0000 1011 1213  ................
	0x0030:  1415 1617 1819 1a1b 1c1d 1e1f 2021 2223  .............!"#
	0x0040:  2425 2627 2829 2a2b 2c2d 2e2f 3031 3233  $%&'()*+,-./0123
	0x0050:  3435 3637                                4567
14:00:52.727878 IP (tos 0x0, ttl 64, id 10442, offset 0, flags [none], proto ICMP (1), length 84)
    192.0.2.24 > 192.0.2.17: ICMP echo reply, id 190, seq 71, length 64
	0x0000:  4500 0054 28ca 0000 4001 cdb5 c000 0218  E..T(...@.......
	0x0010:  c000 0211 0000 140f 00be 0047 149c 3062  ...........G..0b
	0x0020:  0000 0000 dc1a 0b00 0000 0000 1011 1213  ................
	0x0030:  1415 1617 1819 1a1b 1c1d 1e1f 2021 2223  .............!"#
	0x0040:  2425 2627 2829 2a2b 2c2d 2e2f 3031 3233  $%&'()*+,-./0123
	0x0050:  3435 3637                                4567
14:00:53.752068 IP (tos 0x0, ttl 64, id 33516, offset 0, flags [DF], proto ICMP (1), length 84)
    192.0.2.17 > 192.0.2.24: ICMP echo request, id 190, seq 72, length 64
	0x0000:  4500 0054 82ec 4000 4001 3393 c000 0211  E..T..@.@.3.....
	0x0010:  c000 0218 0800 6aaf 00be 0048 159c 3062  ......j....H..0b
	0x0020:  0000 0000 7c79 0b00 0000 0000 1011 1213  ....|y..........
	0x0030:  1415 1617 1819 1a1b 1c1d 1e1f 2021 2223  .............!"#
	0x0040:  2425 2627 2829 2a2b 2c2d 2e2f 3031 3233  $%&'()*+,-./0123
	0x0050:  3435 3637                                4567
14:00:53.752100 IP (tos 0x0, ttl 64, id 10599, offset 0, flags [none], proto ICMP (1), length 84)
    192.0.2.24 > 192.0.2.17: ICMP echo reply, id 190, seq 72, length 64
	0x0000:  4500 0054 2967 0000 4001 cd18 c000 0218  E..T)g..@.......
	0x0010:  c000 0211 0000 72af 00be 0048 159c 3062  ......r....H..0b
	0x0020:  0000 0000 7c79 0b00 0000 0000 1011 1213  ....|y..........
	0x0030:  1415 1617 1819 1a1b 1c1d 1e1f 2021 2223  .............!"#
	0x0040:  2425 2627 2829 2a2b 2c2d 2e2f 3031 3233  $%&'()*+,-./0123
	0x0050:  3435 3637                                4567
14:00:54.776481 IP (tos 0x0, ttl 64, id 33743, offset 0, flags [DF], proto ICMP (1), length 84)
    192.0.2.17 > 192.0.2.24: ICMP echo request, id 190, seq 73, length 64
	0x0000:  4500 0054 83cf 4000 4001 32b0 c000 0211  E..T..@.@.2.....
	0x0010:  c000 0218 0800 0d4f 00be 0049 169c 3062  .......O...I..0b
	0x0020:  0000 0000 d8d8 0b00 0000 0000 1011 1213  ................
	0x0030:  1415 1617 1819 1a1b 1c1d 1e1f 2021 2223  .............!"#
	0x0040:  2425 2627 2829 2a2b 2c2d 2e2f 3031 3233  $%&'()*+,-./0123
	0x0050:  3435 3637                                4567
14:00:54.776513 IP (tos 0x0, ttl 64, id 10790, offset 0, flags [none], proto ICMP (1), length 84)
    192.0.2.24 > 192.0.2.17: ICMP echo reply, id 190, seq 73, length 64
	0x0000:  4500 0054 2a26 0000 4001 cc59 c000 0218  E..T*&..@..Y....
	0x0010:  c000 0211 0000 154f 00be 0049 169c 3062  .......O...I..0b
	0x0020:  0000 0000 d8d8 0b00 0000 0000 1011 1213  ................
	0x0030:  1415 1617 1819 1a1b 1c1d 1e1f 2021 2223  .............!"#
	0x0040:  2425 2627 2829 2a2b 2c2d 2e2f 3031 3233  $%&'()*+,-./0123
	0x0050:  3435 3637                                4567
14:00:55.799652 IP (tos 0x0, ttl 64, id 33893, offset 0, flags [DF], proto ICMP (1), length 84)
    192.0.2.17 > 192.0.2.24: ICMP echo request, id 190, seq 74, length 64
	0x0000:  4500 0054 8465 4000 4001 321a c000 0211  E..T.e@.@.2.....
	0x0010:  c000 0218 0800 88f3 00be 004a 179c 3062  ...........J..0b
	0x0020:  0000 0000 5b33 0c00 0000 0000 1011 1213  ....[3..........
	0x0030:  1415 1617 1819 1a1b 1c1d 1e1f 2021 2223  .............!"#
	0x0040:  2425 2627 2829 2a2b 2c2d 2e2f 3031 3233  $%&'()*+,-./0123
	0x0050:  3435 3637                                4567
14:00:55.799686 IP (tos 0x0, ttl 64, id 10970, offset 0, flags [none], proto ICMP (1), length 84)
    192.0.2.24 > 192.0.2.17: ICMP echo reply, id 190, seq 74, length 64
	0x0000:  4500 0054 2ada 0000 4001 cba5 c000 0218  E..T*...@.......
	0x0010:  c000 0211 0000 90f3 00be 004a 179c 3062  ...........J..0b
	0x0020:  0000 0000 5b33 0c00 0000 0000 1011 1213  ....[3..........
	0x0030:  1415 1617 1819 1a1b 1c1d 1e1f 2021 2223  .............!"#
	0x0040:  2425 2627 2829 2a2b 2c2d 2e2f 3031 3233  $%&'()*+,-./0123
	0x0050:  3435 3637                                4567
14:00:56.823672 IP (tos 0x0, ttl 64, id 34046, offset 0, flags [DF], proto ICMP (1), length 84)
    192.0.2.17 > 192.0.2.24: ICMP echo request, id 190, seq 75, length 64
	0x0000:  4500 0054 84fe 4000 4001 3181 c000 0211  E..T..@.@.1.....
	0x0010:  c000 0218 0800 b294 00be 004b 189c 3062  ...........K..0b
	0x0020:  0000 0000 3091 0c00 0000 0000 1011 1213  ....0...........
	0x0030:  1415 1617 1819 1a1b 1c1d 1e1f 2021 2223  .............!"#
	0x0040:  2425 2627 2829 2a2b 2c2d 2e2f 3031 3233  $%&'()*+,-./0123
	0x0050:  3435 3637                                4567
14:00:56.823705 IP (tos 0x0, ttl 64, id 11211, offset 0, flags [none], proto ICMP (1), length 84)
    192.0.2.24 > 192.0.2.17: ICMP echo reply, id 190, seq 75, length 64
	0x0000:  4500 0054 2bcb 0000 4001 cab4 c000 0218  E..T+...@.......
	0x0010:  c000 0211 0000 ba94 00be 004b 189c 3062  ...........K..0b
	0x0020:  0000 0000 3091 0c00 0000 0000 1011 1213  ....0...........
	0x0030:  1415 1617 1819 1a1b 1c1d 1e1f 2021 2223  .............!"#
	0x0040:  2425 2627 2829 2a2b 2c2d 2e2f 3031 3233  $%&'()*+,-./0123
	0x0050:  3435 3637                                4567
14:00:57.847832 IP (tos 0x0, ttl 64, id 34095, offset 0, flags [DF], proto ICMP (1), length 84)
    192.0.2.17 > 192.0.2.24: ICMP echo request, id 190, seq 76, length 64
	0x0000:  4500 0054 852f 4000 4001 3150 c000 0211  E..T./@.@.1P....
	0x0010:  c000 0218 0800 5135 00be 004c 199c 3062  ......Q5...L..0b
	0x0020:  0000 0000 90ef 0c00 0000 0000 1011 1213  ................
	0x0030:  1415 1617 1819 1a1b 1c1d 1e1f 2021 2223  .............!"#
	0x0040:  2425 2627 2829 2a2b 2c2d 2e2f 3031 3233  $%&'()*+,-./0123
	0x0050:  3435 3637                                4567
14:00:57.847865 IP (tos 0x0, ttl 64, id 11460, offset 0, flags [none], proto ICMP (1), length 84)
    192.0.2.24 > 192.0.2.17: ICMP echo reply, id 190, seq 76, length 64
	0x0000:  4500 0054 2cc4 0000 4001 c9bb c000 0218  E..T,...@.......
	0x0010:  c000 0211 0000 5935 00be 004c 199c 3062  ......Y5...L..0b
	0x0020:  0000 0000 90ef 0c00 0000 0000 1011 1213  ................
	0x0030:  1415 1617 1819 1a1b 1c1d 1e1f 2021 2223  .............!"#
	0x0040:  2425 2627 2829 2a2b 2c2d 2e2f 3031 3233  $%&'()*+,-./0123
	0x0050:  3435 3637                                4567
14:00:58.871869 IP (tos 0x0, ttl 64, id 34211, offset 0, flags [DF], proto ICMP (1), length 84)
    192.0.2.17 > 192.0.2.24: ICMP echo request, id 190, seq 77, length 64
	0x0000:  4500 0054 85a3 4000 4001 30dc c000 0211  E..T..@.@.0.....
	0x0010:  c000 0218 0800 6dd6 00be 004d 1a9c 3062  ......m....M..0b
	0x0020:  0000 0000 724d 0d00 0000 0000 1011 1213  ....rM..........
	0x0030:  1415 1617 1819 1a1b 1c1d 1e1f 2021 2223  .............!"#
	0x0040:  2425 2627 2829 2a2b 2c2d 2e2f 3031 3233  $%&'()*+,-./0123
	0x0050:  3435 3637                                4567
14:00:58.871902 IP (tos 0x0, ttl 64, id 11635, offset 0, flags [none], proto ICMP (1), length 84)
    192.0.2.24 > 192.0.2.17: ICMP echo reply, id 190, seq 77, length 64
	0x0000:  4500 0054 2d73 0000 4001 c90c c000 0218  E..T-s..@.......
	0x0010:  c000 0211 0000 75d6 00be 004d 1a9c 3062  ......u....M..0b
	0x0020:  0000 0000 724d 0d00 0000 0000 1011 1213  ....rM..........
	0x0030:  1415 1617 1819 1a1b 1c1d 1e1f 2021 2223  .............!"#
	0x0040:  2425 2627 2829 2a2b 2c2d 2e2f 3031 3233  $%&'()*+,-./0123
	0x0050:  3435 3637                                4567
14:00:59.896174 IP (tos 0x0, ttl 64, id 34340, offset 0, flags [DF], proto ICMP (1), length 84)
    192.0.2.17 > 192.0.2.24: ICMP echo request, id 190, seq 78, length 64
	0x0000:  4500 0054 8624 4000 4001 305b c000 0211  E..T.$@.@.0[....
	0x0010:  c000 0218 0800 b176 00be 004e 1b9c 3062  .......v...N..0b
	0x0020:  0000 0000 2dac 0d00 0000 0000 1011 1213  ....-...........
	0x0030:  1415 1617 1819 1a1b 1c1d 1e1f 2021 2223  .............!"#
	0x0040:  2425 2627 2829 2a2b 2c2d 2e2f 3031 3233  $%&'()*+,-./0123
	0x0050:  3435 3637                                4567
14:00:59.896208 IP (tos 0x0, ttl 64, id 11701, offset 0, flags [none], proto ICMP (1), length 84)
    192.0.2.24 > 192.0.2.17: ICMP echo reply, id 190, seq 78, length 64
	0x0000:  4500 0054 2db5 0000 4001 c8ca c000 0218  E..T-...@.......
	0x0010:  c000 0211 0000 b976 00be 004e 1b9c 3062  .......v...N..0b
	0x0020:  0000 0000 2dac 0d00 0000 0000 1011 1213  ....-...........
	0x0030:  1415 1617 1819 1a1b 1c1d 1e1f 2021 2223  .............!"#
	0x0040:  2425 2627 2829 2a2b 2c2d 2e2f 3031 3233  $%&'()*+,-./0123
	0x0050:  3435 3637                                4567
14:01:00.919498 IP (tos 0x0, ttl 64, id 34378, offset 0, flags [DF], proto ICMP (1), length 84)
    192.0.2.17 > 192.0.2.24: ICMP echo request, id 190, seq 79, length 64
	0x0000:  4500 0054 864a 4000 4001 3035 c000 0211  E..T.J@.@.05....
	0x0010:  c000 0218 0800 351a 00be 004f 1c9c 3062  ......5....O..0b
	0x0020:  0000 0000 a807 0e00 0000 0000 1011 1213  ................
	0x0030:  1415 1617 1819 1a1b 1c1d 1e1f 2021 2223  .............!"#
	0x0040:  2425 2627 2829 2a2b 2c2d 2e2f 3031 3233  $%&'()*+,-./0123
	0x0050:  3435 3637                                4567
14:01:00.919512 IP (tos 0x0, ttl 64, id 11890, offset 0, flags [none], proto ICMP (1), length 84)
    192.0.2.24 > 192.0.2.17: ICMP echo reply, id 190, seq 79, length 64
	0x0000:  4500 0054 2e72 0000 4001 c80d c000 0218  E..T.r..@.......
	0x0010:  c000 0211 0000 3d1a 00be 004f 1c9c 3062  ......=....O..0b
	0x0020:  0000 0000 a807 0e00 0000 0000 1011 1213  ................
	0x0030:  1415 1617 1819 1a1b 1c1d 1e1f 2021 2223  .............!"#
	0x0040:  2425 2627 2829 2a2b 2c2d 2e2f 3031 3233  $%&'()*+,-./0123
	0x0050:  3435 3637                                4567
14:01:01.944253 IP (tos 0x0, ttl 64, id 34607, offset 0, flags [DF], proto ICMP (1), length 84)
    192.0.2.17 > 192.0.2.24: ICMP echo request, id 190, seq 80, length 64
	0x0000:  4500 0054 872f 4000 4001 2f50 c000 0211  E..T./@.@./P....
	0x0010:  c000 0218 0800 a3b8 00be 0050 1d9c 3062  ...........P..0b
	0x0020:  0000 0000 3868 0e00 0000 0000 1011 1213  ....8h..........
	0x0030:  1415 1617 1819 1a1b 1c1d 1e1f 2021 2223  .............!"#
	0x0040:  2425 2627 2829 2a2b 2c2d 2e2f 3031 3233  $%&'()*+,-./0123
	0x0050:  3435 3637                                4567
14:01:01.944284 IP (tos 0x0, ttl 64, id 11942, offset 0, flags [none], proto ICMP (1), length 84)
    192.0.2.24 > 192.0.2.17: ICMP echo reply, id 190, seq 80, length 64
	0x0000:  4500 0054 2ea6 0000 4001 c7d9 c000 0218  E..T....@.......
	0x0010:  c000 0211 0000 abb8 00be 0050 1d9c 3062  ...........P..0b
	0x0020:  0000 0000 3868 0e00 0000 0000 1011 1213  ....8h..........
	0x0030:  1415 1617 1819 1a1b 1c1d 1e1f 2021 2223  .............!"#
	0x0040:  2425 2627 2829 2a2b 2c2d 2e2f 3031 3233  $%&'()*+,-./0123
	0x0050:  3435 3637                                4567
14:01:02.968347 IP (tos 0x0, ttl 64, id 34741, offset 0, flags [DF], proto ICMP (1), length 84)
    192.0.2.17 > 192.0.2.24: ICMP echo request, id 190, seq 81, length 64
	0x0000:  4500 0054 87b5 4000 4001 2eca c000 0211  E..T..@.@.......
	0x0010:  c000 0218 0800 9559 00be 0051 1e9c 3062  .......Y...Q..0b
	0x0020:  0000 0000 45c6 0e00 0000 0000 1011 1213  ....E...........
	0x0030:  1415 1617 1819 1a1b 1c1d 1e1f 2021 2223  .............!"#
	0x0040:  2425 2627 2829 2a2b 2c2d 2e2f 3031 3233  $%&'()*+,-./0123
	0x0050:  3435 3637                                4567
14:01:02.968382 IP (tos 0x0, ttl 64, id 12110, offset 0, flags [none], proto ICMP (1), length 84)
    192.0.2.24 > 192.0.2.17: ICMP echo reply, id 190, seq 81, length 64
	0x0000:  4500 0054 2f4e 0000 4001 c731 c000 0218  E..T/N..@..1....
	0x0010:  c000 0211 0000 9d59 00be 0051 1e9c 3062  .......Y...Q..0b
	0x0020:  0000 0000 45c6 0e00 0000 0000 1011 1213  ....E...........
	0x0030:  1415 1617 1819 1a1b 1c1d 1e1f 2021 2223  .............!"#
	0x0040:  2425 2627 2829 2a2b 2c2d 2e2f 3031 3233  $%&'()*+,-./0123
	0x0050:  3435 3637                                4567
14:01:03.992298 IP (tos 0x0, ttl 64, id 34820, offset 0, flags [DF], proto ICMP (1), length 84)
    192.0.2.17 > 192.0.2.24: ICMP echo request, id 190, seq 82, length 64
	0x0000:  4500 0054 8804 4000 4001 2e7b c000 0211  E..T..@.@..{....
	0x0010:  c000 0218 0800 f4fa 00be 0052 1f9c 3062  ...........R..0b
	0x0020:  0000 0000 e423 0f00 0000 0000 1011 1213  .....#..........
	0x0030:  1415 1617 1819 1a1b 1c1d 1e1f 2021 2223  .............!"#
	0x0040:  2425 2627 2829 2a2b 2c2d 2e2f 3031 3233  $%&'()*+,-./0123
	0x0050:  3435 3637                                4567
14:01:03.992329 IP (tos 0x0, ttl 64, id 12360, offset 0, flags [none], proto ICMP (1), length 84)
    192.0.2.24 > 192.0.2.17: ICMP echo reply, id 190, seq 82, length 64
	0x0000:  4500 0054 3048 0000 4001 c637 c000 0218  E..T0H..@..7....
	0x0010:  c000 0211 0000 fcfa 00be 0052 1f9c 3062  ...........R..0b
	0x0020:  0000 0000 e423 0f00 0000 0000 1011 1213  .....#..........
	0x0030:  1415 1617 1819 1a1b 1c1d 1e1f 2021 2223  .............!"#
	0x0040:  2425 2627 2829 2a2b 2c2d 2e2f 3031 3233  $%&'()*+,-./0123
	0x0050:  3435 3637                                4567
14:01:05.016467 IP (tos 0x0, ttl 64, id 34833, offset 0, flags [DF], proto ICMP (1), length 84)
    192.0.2.17 > 192.0.2.24: ICMP echo request, id 190, seq 83, length 64
	0x0000:  4500 0054 8811 4000 4001 2e6e c000 0211  E..T..@.@..n....
	0x0010:  c000 0218 0800 dddd 00be 0053 219c 3062  ...........S!.0b
	0x0020:  0000 0000 0840 0000 0000 0000 1011 1213  .....@..........
	0x0030:  1415 1617 1819 1a1b 1c1d 1e1f 2021 2223  .............!"#
	0x0040:  2425 2627 2829 2a2b 2c2d 2e2f 3031 3233  $%&'()*+,-./0123
	0x0050:  3435 3637                                4567
14:01:05.016500 IP (tos 0x0, ttl 64, id 12418, offset 0, flags [none], proto ICMP (1), length 84)
    192.0.2.24 > 192.0.2.17: ICMP echo reply, id 190, seq 83, length 64
	0x0000:  4500 0054 3082 0000 4001 c5fd c000 0218  E..T0...@.......
	0x0010:  c000 0211 0000 e5dd 00be 0053 219c 3062  ...........S!.0b
	0x0020:  0000 0000 0840 0000 0000 0000 1011 1213  .....@..........
	0x0030:  1415 1617 1819 1a1b 1c1d 1e1f 2021 2223  .............!"#
	0x0040:  2425 2627 2829 2a2b 2c2d 2e2f 3031 3233  $%&'()*+,-./0123
	0x0050:  3435 3637                                4567
14:01:06.040276 IP (tos 0x0, ttl 64, id 35007, offset 0, flags [DF], proto ICMP (1), length 84)
    192.0.2.17 > 192.0.2.24: ICMP echo request, id 190, seq 84, length 64
	0x0000:  4500 0054 88bf 4000 4001 2dc0 c000 0211  E..T..@.@.-.....
	0x0010:  c000 0218 0800 d57f 00be 0054 229c 3062  ...........T".0b
	0x0020:  0000 0000 0f9d 0000 0000 0000 1011 1213  ................
	0x0030:  1415 1617 1819 1a1b 1c1d 1e1f 2021 2223  .............!"#
	0x0040:  2425 2627 2829 2a2b 2c2d 2e2f 3031 3233  $%&'()*+,-./0123
	0x0050:  3435 3637                                4567
14:01:06.040308 IP (tos 0x0, ttl 64, id 12473, offset 0, flags [none], proto ICMP (1), length 84)
    192.0.2.24 > 192.0.2.17: ICMP echo reply, id 190, seq 84, length 64
	0x0000:  4500 0054 30b9 0000 4001 c5c6 c000 0218  E..T0...@.......
	0x0010:  c000 0211 0000 dd7f 00be 0054 229c 3062  ...........T".0b
	0x0020:  0000 0000 0f9d 0000 0000 0000 1011 1213  ................
	0x0030:  1415 1617 1819 1a1b 1c1d 1e1f 2021 2223  .............!"#
	0x0040:  2425 2627 2829 2a2b 2c2d 2e2f 3031 3233  $%&'()*+,-./0123
	0x0050:  3435 3637                                4567
14:01:07.063779 IP (tos 0x0, ttl 64, id 35143, offset 0, flags [DF], proto ICMP (1), length 84)
    192.0.2.17 > 192.0.2.24: ICMP echo request, id 190, seq 85, length 64
	0x0000:  4500 0054 8947 4000 4001 2d38 c000 0211  E..T.G@.@.-8....
	0x0010:  c000 0218 0800 0723 00be 0055 239c 3062  .......#...U#.0b
	0x0020:  0000 0000 dcf8 0000 0000 0000 1011 1213  ................
	0x0030:  1415 1617 1819 1a1b 1c1d 1e1f 2021 2223  .............!"#
	0x0040:  2425 2627 2829 2a2b 2c2d 2e2f 3031 3233  $%&'()*+,-./0123
	0x0050:  3435 3637                                4567
14:01:07.063812 IP (tos 0x0, ttl 64, id 12490, offset 0, flags [none], proto ICMP (1), length 84)
    192.0.2.24 > 192.0.2.17: ICMP echo reply, id 190, seq 85, length 64
	0x0000:  4500 0054 30ca 0000 4001 c5b5 c000 0218  E..T0...@.......
	0x0010:  c000 0211 0000 0f23 00be 0055 239c 3062  .......#...U#.0b
	0x0020:  0000 0000 dcf8 0000 0000 0000 1011 1213  ................
	0x0030:  1415 1617 1819 1a1b 1c1d 1e1f 2021 2223  .............!"#
	0x0040:  2425 2627 2829 2a2b 2c2d 2e2f 3031 3233  $%&'()*+,-./0123
	0x0050:  3435 3637                                4567
14:01:08.088086 IP (tos 0x0, ttl 64, id 35172, offset 0, flags [DF], proto ICMP (1), length 84)
    192.0.2.17 > 192.0.2.24: ICMP echo request, id 190, seq 86, length 64
	0x0000:  4500 0054 8964 4000 4001 2d1b c000 0211  E..T.d@.@.-.....
	0x0010:  c000 0218 0800 16c3 00be 0056 249c 3062  ...........V$.0b
	0x0020:  0000 0000 cb57 0100 0000 0000 1011 1213  .....W..........
	0x0030:  1415 1617 1819 1a1b 1c1d 1e1f 2021 2223  .............!"#
	0x0040:  2425 2627 2829 2a2b 2c2d 2e2f 3031 3233  $%&'()*+,-./0123
	0x0050:  3435 3637                                4567
14:01:08.088121 IP (tos 0x0, ttl 64, id 12687, offset 0, flags [none], proto ICMP (1), length 84)
    192.0.2.24 > 192.0.2.17: ICMP echo reply, id 190, seq 86, length 64
	0x0000:  4500 0054 318f 0000 4001 c4f0 c000 0218  E..T1...@.......
	0x0010:  c000 0211 0000 1ec3 00be 0056 249c 3062  ...........V$.0b
	0x0020:  0000 0000 cb57 0100 0000 0000 1011 1213  .....W..........
	0x0030:  1415 1617 1819 1a1b 1c1d 1e1f 2021 2223  .............!"#
	0x0040:  2425 2627 2829 2a2b 2c2d 2e2f 3031 3233  $%&'()*+,-./0123
	0x0050:  3435 3637                                4567
14:01:09.111660 IP (tos 0x0, ttl 64, id 35415, offset 0, flags [DF], proto ICMP (1), length 84)
    192.0.2.17 > 192.0.2.24: ICMP echo request, id 190, seq 87, length 64
	0x0000:  4500 0054 8a57 4000 4001 2c28 c000 0211  E..T.W@.@.,(....
	0x0010:  c000 0218 0800 fc65 00be 0057 259c 3062  .......e...W%.0b
	0x0020:  0000 0000 e4b3 0100 0000 0000 1011 1213  ................
	0x0030:  1415 1617 1819 1a1b 1c1d 1e1f 2021 2223  .............!"#
	0x0040:  2425 2627 2829 2a2b 2c2d 2e2f 3031 3233  $%&'()*+,-./0123
	0x0050:  3435 3637                                4567
14:01:09.111691 IP (tos 0x0, ttl 64, id 12717, offset 0, flags [none], proto ICMP (1), length 84)
    192.0.2.24 > 192.0.2.17: ICMP echo reply, id 190, seq 87, length 64
	0x0000:  4500 0054 31ad 0000 4001 c4d2 c000 0218  E..T1...@.......
	0x0010:  c000 0211 0000 0466 00be 0057 259c 3062  .......f...W%.0b
	0x0020:  0000 0000 e4b3 0100 0000 0000 1011 1213  ................
	0x0030:  1415 1617 1819 1a1b 1c1d 1e1f 2021 2223  .............!"#
	0x0040:  2425 2627 2829 2a2b 2c2d 2e2f 3031 3233  $%&'()*+,-./0123
	0x0050:  3435 3637                                4567
14:01:10.135675 IP (tos 0x0, ttl 64, id 35629, offset 0, flags [DF], proto ICMP (1), length 84)
    192.0.2.17 > 192.0.2.24: ICMP echo request, id 190, seq 88, length 64
	0x0000:  4500 0054 8b2d 4000 4001 2b52 c000 0211  E..T.-@.@.+R....
	0x0010:  c000 0218 0800 2507 00be 0058 269c 3062  ......%....X&.0b
	0x0020:  0000 0000 ba11 0200 0000 0000 1011 1213  ................
	0x0030:  1415 1617 1819 1a1b 1c1d 1e1f 2021 2223  .............!"#
	0x0040:  2425 2627 2829 2a2b 2c2d 2e2f 3031 3233  $%&'()*+,-./0123
	0x0050:  3435 3637                                4567
14:01:10.135702 IP (tos 0x0, ttl 64, id 12856, offset 0, flags [none], proto ICMP (1), length 84)
    192.0.2.24 > 192.0.2.17: ICMP echo reply, id 190, seq 88, length 64
	0x0000:  4500 0054 3238 0000 4001 c447 c000 0218  E..T28..@..G....
	0x0010:  c000 0211 0000 2d07 00be 0058 269c 3062  ......-....X&.0b
	0x0020:  0000 0000 ba11 0200 0000 0000 1011 1213  ................
	0x0030:  1415 1617 1819 1a1b 1c1d 1e1f 2021 2223  .............!"#
	0x0040:  2425 2627 2829 2a2b 2c2d 2e2f 3031 3233  $%&'()*+,-./0123
	0x0050:  3435 3637                                4567
14:01:11.159539 IP (tos 0x0, ttl 64, id 35676, offset 0, flags [DF], proto ICMP (1), length 84)
    192.0.2.17 > 192.0.2.24: ICMP echo request, id 190, seq 89, length 64
	0x0000:  4500 0054 8b5c 4000 4001 2b23 c000 0211  E..T.\@.@.+#....
	0x0010:  c000 0218 0800 cba8 00be 0059 279c 3062  ...........Y'.0b
	0x0020:  0000 0000 126f 0200 0000 0000 1011 1213  .....o..........
	0x0030:  1415 1617 1819 1a1b 1c1d 1e1f 2021 2223  .............!"#
	0x0040:  2425 2627 2829 2a2b 2c2d 2e2f 3031 3233  $%&'()*+,-./0123
	0x0050:  3435 3637                                4567
14:01:11.159555 IP (tos 0x0, ttl 64, id 12994, offset 0, flags [none], proto ICMP (1), length 84)
    192.0.2.24 > 192.0.2.17: ICMP echo reply, id 190, seq 89, length 64
	0x0000:  4500 0054 32c2 0000 4001 c3bd c000 0218  E..T2...@.......
	0x0010:  c000 0211 0000 d3a8 00be 0059 279c 3062  ...........Y'.0b
	0x0020:  0000 0000 126f 0200 0000 0000 1011 1213  .....o..........
	0x0030:  1415 1617 1819 1a1b 1c1d 1e1f 2021 2223  .............!"#
	0x0040:  2425 2627 2829 2a2b 2c2d 2e2f 3031 3233  $%&'()*+,-./0123
	0x0050:  3435 3637                                4567
14:01:12.183798 IP (tos 0x0, ttl 64, id 35737, offset 0, flags [DF], proto ICMP (1), length 84)
    192.0.2.17 > 192.0.2.24: ICMP echo request, id 190, seq 90, length 64
	0x0000:  4500 0054 8b99 4000 4001 2ae6 c000 0211  E..T..@.@.*.....
	0x0010:  c000 0218 0800 2a49 00be 005a 289c 3062  ......*I...Z(.0b
	0x0020:  0000 0000 b2cd 0200 0000 0000 1011 1213  ................
	0x0030:  1415 1617 1819 1a1b 1c1d 1e1f 2021 2223  .............!"#
	0x0040:  2425 2627 2829 2a2b 2c2d 2e2f 3031 3233  $%&'()*+,-./0123
	0x0050:  3435 3637                                4567
14:01:12.183830 IP (tos 0x0, ttl 64, id 13079, offset 0, flags [none], proto ICMP (1), length 84)
    192.0.2.24 > 192.0.2.17: ICMP echo reply, id 190, seq 90, length 64
	0x0000:  4500 0054 3317 0000 4001 c368 c000 0218  E..T3...@..h....
	0x0010:  c000 0211 0000 3249 00be 005a 289c 3062  ......2I...Z(.0b
	0x0020:  0000 0000 b2cd 0200 0000 0000 1011 1213  ................
	0x0030:  1415 1617 1819 1a1b 1c1d 1e1f 2021 2223  .............!"#
	0x0040:  2425 2627 2829 2a2b 2c2d 2e2f 3031 3233  $%&'()*+,-./0123
	0x0050:  3435 3637                                4567
14:01:13.207636 IP (tos 0x0, ttl 64, id 35987, offset 0, flags [DF], proto ICMP (1), length 84)
    192.0.2.17 > 192.0.2.24: ICMP echo request, id 190, seq 91, length 64
	0x0000:  4500 0054 8c93 4000 4001 29ec c000 0211  E..T..@.@.).....
	0x0010:  c000 0218 0800 0deb 00be 005b 299c 3062  ...........[).0b
	0x0020:  0000 0000 cd2a 0300 0000 0000 1011 1213  .....*..........
	0x0030:  1415 1617 1819 1a1b 1c1d 1e1f 2021 2223  .............!"#
	0x0040:  2425 2627 2829 2a2b 2c2d 2e2f 3031 3233  $%&'()*+,-./0123
	0x0050:  3435 3637                                4567
14:01:13.207669 IP (tos 0x0, ttl 64, id 13333, offset 0, flags [none], proto ICMP (1), length 84)
    192.0.2.24 > 192.0.2.17: ICMP echo reply, id 190, seq 91, length 64
	0x0000:  4500 0054 3415 0000 4001 c26a c000 0218  E..T4...@..j....
	0x0010:  c000 0211 0000 15eb 00be 005b 299c 3062  ...........[).0b
	0x0020:  0000 0000 cd2a 0300 0000 0000 1011 1213  .....*..........
	0x0030:  1415 1617 1819 1a1b 1c1d 1e1f 2021 2223  .............!"#
	0x0040:  2425 2627 2829 2a2b 2c2d 2e2f 3031 3233  $%&'()*+,-./0123
	0x0050:  3435 3637                                4567
14:01:14.231979 IP (tos 0x0, ttl 64, id 36088, offset 0, flags [DF], proto ICMP (1), length 84)
    192.0.2.17 > 192.0.2.24: ICMP echo request, id 190, seq 92, length 64
	0x0000:  4500 0054 8cf8 4000 4001 2987 c000 0211  E..T..@.@.).....
	0x0010:  c000 0218 0800 f58a 00be 005c 2a9c 3062  ...........\*.0b
	0x0020:  0000 0000 e489 0300 0000 0000 1011 1213  ................
	0x0030:  1415 1617 1819 1a1b 1c1d 1e1f 2021 2223  .............!"#
	0x0040:  2425 2627 2829 2a2b 2c2d 2e2f 3031 3233  $%&'()*+,-./0123
	0x0050:  3435 3637                                4567
14:01:14.232011 IP (tos 0x0, ttl 64, id 13485, offset 0, flags [none], proto ICMP (1), length 84)
    192.0.2.24 > 192.0.2.17: ICMP echo reply, id 190, seq 92, length 64
	0x0000:  4500 0054 34ad 0000 4001 c1d2 c000 0218  E..T4...@.......
	0x0010:  c000 0211 0000 fd8a 00be 005c 2a9c 3062  ...........\*.0b
	0x0020:  0000 0000 e489 0300 0000 0000 1011 1213  ................
	0x0030:  1415 1617 1819 1a1b 1c1d 1e1f 2021 2223  .............!"#
	0x0040:  2425 2627 2829 2a2b 2c2d 2e2f 3031 3233  $%&'()*+,-./0123
	0x0050:  3435 3637                                4567
14:01:15.255681 IP (tos 0x0, ttl 64, id 36317, offset 0, flags [DF], proto ICMP (1), length 84)
    192.0.2.17 > 192.0.2.24: ICMP echo request, id 190, seq 93, length 64
	0x0000:  4500 0054 8ddd 4000 4001 28a2 c000 0211  E..T..@.@.(.....
	0x0010:  c000 0218 0800 5e2d 00be 005d 2b9c 3062  ......^-...]+.0b
	0x0020:  0000 0000 7ae6 0300 0000 0000 1011 1213  ....z...........
	0x0030:  1415 1617 1819 1a1b 1c1d 1e1f 2021 2223  .............!"#
	0x0040:  2425 2627 2829 2a2b 2c2d 2e2f 3031 3233  $%&'()*+,-./0123
	0x0050:  3435 3637                                4567
14:01:15.255714 IP (tos 0x0, ttl 64, id 13499, offset 0, flags [none], proto ICMP (1), length 84)
    192.0.2.24 > 192.0.2.17: ICMP echo reply, id 190, seq 93, length 64
	0x0000:  4500 0054 34bb 0000 4001 c1c4 c000 0218  E..T4...@.......
	0x0010:  c000 0211 0000 662d 00be 005d 2b9c 3062  ......f-...]+.0b
	0x0020:  0000 0000 7ae6 0300 0000 0000 1011 1213  ....z...........
	0x0030:  1415 1617 1819 1a1b 1c1d 1e1f 2021 2223  .............!"#
	0x0040:  2425 2627 2829 2a2b 2c2d 2e2f 3031 3233  $%&'()*+,-./0123
	0x0050:  3435 3637                                4567
14:01:16.279967 IP (tos 0x0, ttl 64, id 36376, offset 0, flags [DF], proto ICMP (1), length 84)
    192.0.2.17 > 192.0.2.24: ICMP echo request, id 190, seq 94, length 64
	0x0000:  4500 0054 8e18 4000 4001 2867 c000 0211  E..T..@.@.(g....
	0x0010:  c000 0218 0800 7ecd 00be 005e 2c9c 3062  ......~....^,.0b
	0x0020:  0000 0000 5845 0400 0000 0000 1011 1213  ....XE..........
	0x0030:  1415 1617 1819 1a1b 1c1d 1e1f 2021 2223  .............!"#
	0x0040:  2425 2627 2829 2a2b 2c2d 2e2f 3031 3233  $%&'()*+,-./0123
	0x0050:  3435 3637                                4567
14:01:16.279999 IP (tos 0x0, ttl 64, id 13617, offset 0, flags [none], proto ICMP (1), length 84)
    192.0.2.24 > 192.0.2.17: ICMP echo reply, id 190, seq 94, length 64
	0x0000:  4500 0054 3531 0000 4001 c14e c000 0218  E..T51..@..N....
	0x0010:  c000 0211 0000 86cd 00be 005e 2c9c 3062  ...........^,.0b
	0x0020:  0000 0000 5845 0400 0000 0000 1011 1213  ....XE..........
	0x0030:  1415 1617 1819 1a1b 1c1d 1e1f 2021 2223  .............!"#
	0x0040:  2425 2627 2829 2a2b 2c2d 2e2f 3031 3233  $%&'()*+,-./0123
	0x0050:  3435 3637                                4567
14:01:17.304388 IP (tos 0x0, ttl 64, id 36437, offset 0, flags [DF], proto ICMP (1), length 84)
    192.0.2.17 > 192.0.2.24: ICMP echo request, id 190, seq 95, length 64
	0x0000:  4500 0054 8e55 4000 4001 282a c000 0211  E..T.U@.@.(*....
	0x0010:  c000 0218 0800 1b6d 00be 005f 2d9c 3062  .......m..._-.0b
	0x0020:  0000 0000 baa4 0400 0000 0000 1011 1213  ................
	0x0030:  1415 1617 1819 1a1b 1c1d 1e1f 2021 2223  .............!"#
	0x0040:  2425 2627 2829 2a2b 2c2d 2e2f 3031 3233  $%&'()*+,-./0123
	0x0050:  3435 3637                                4567
14:01:17.304422 IP (tos 0x0, ttl 64, id 13762, offset 0, flags [none], proto ICMP (1), length 84)
    192.0.2.24 > 192.0.2.17: ICMP echo reply, id 190, seq 95, length 64
	0x0000:  4500 0054 35c2 0000 4001 c0bd c000 0218  E..T5...@.......
	0x0010:  c000 0211 0000 236d 00be 005f 2d9c 3062  ......#m..._-.0b
	0x0020:  0000 0000 baa4 0400 0000 0000 1011 1213  ................
	0x0030:  1415 1617 1819 1a1b 1c1d 1e1f 2021 2223  .............!"#
	0x0040:  2425 2627 2829 2a2b 2c2d 2e2f 3031 3233  $%&'()*+,-./0123
	0x0050:  3435 3637                                4567
14:01:18.327957 IP (tos 0x0, ttl 64, id 36592, offset 0, flags [DF], proto ICMP (1), length 84)
    192.0.2.17 > 192.0.2.24: ICMP echo request, id 190, seq 96, length 64
	0x0000:  4500 0054 8ef0 4000 4001 278f c000 0211  E..T..@.@.'.....
	0x0010:  c000 0218 0800 0b10 00be 0060 2e9c 3062  ...........`..0b
	0x0020:  0000 0000 c900 0500 0000 0000 1011 1213  ................
	0x0030:  1415 1617 1819 1a1b 1c1d 1e1f 2021 2223  .............!"#
	0x0040:  2425 2627 2829 2a2b 2c2d 2e2f 3031 3233  $%&'()*+,-./0123
	0x0050:  3435 3637                                4567
14:01:18.327991 IP (tos 0x0, ttl 64, id 13956, offset 0, flags [none], proto ICMP (1), length 84)
    192.0.2.24 > 192.0.2.17: ICMP echo reply, id 190, seq 96, length 64
	0x0000:  4500 0054 3684 0000 4001 bffb c000 0218  E..T6...@.......
	0x0010:  c000 0211 0000 1310 00be 0060 2e9c 3062  ...........`..0b
	0x0020:  0000 0000 c900 0500 0000 0000 1011 1213  ................
	0x0030:  1415 1617 1819 1a1b 1c1d 1e1f 2021 2223  .............!"#
	0x0040:  2425 2627 2829 2a2b 2c2d 2e2f 3031 3233  $%&'()*+,-./0123
	0x0050:  3435 3637                                4567
14:01:19.351707 IP (tos 0x0, ttl 64, id 36847, offset 0, flags [DF], proto ICMP (1), length 84)
    192.0.2.17 > 192.0.2.24: ICMP echo request, id 190, seq 97, length 64
	0x0000:  4500 0054 8fef 4000 4001 2690 c000 0211  E..T..@.@.&.....
	0x0010:  c000 0218 0800 41b2 00be 0061 2f9c 3062  ......A....a/.0b
	0x0020:  0000 0000 915d 0500 0000 0000 1011 1213  .....]..........
	0x0030:  1415 1617 1819 1a1b 1c1d 1e1f 2021 2223  .............!"#
	0x0040:  2425 2627 2829 2a2b 2c2d 2e2f 3031 3233  $%&'()*+,-./0123
	0x0050:  3435 3637                                4567
14:01:19.351740 IP (tos 0x0, ttl 64, id 14018, offset 0, flags [none], proto ICMP (1), length 84)
    192.0.2.24 > 192.0.2.17: ICMP echo reply, id 190, seq 97, length 64
	0x0000:  4500 0054 36c2 0000 4001 bfbd c000 0218  E..T6...@.......
	0x0010:  c000 0211 0000 49b2 00be 0061 2f9c 3062  ......I....a/.0b
	0x0020:  0000 0000 915d 0500 0000 0000 1011 1213  .....]..........
	0x0030:  1415 1617 1819 1a1b 1c1d 1e1f 2021 2223  .............!"#
	0x0040:  2425 2627 2829 2a2b 2c2d 2e2f 3031 3233  $%&'()*+,-./0123
	0x0050:  3435 3637                                4567
14:01:20.375889 IP (tos 0x0, ttl 64, id 36922, offset 0, flags [DF], proto ICMP (1), length 84)
    192.0.2.17 > 192.0.2.24: ICMP echo request, id 190, seq 98, length 64
	0x0000:  4500 0054 903a 4000 4001 2645 c000 0211  E..T.:@.@.&E....
	0x0010:  c000 0218 0800 c752 00be 0062 309c 3062  .......R...b0.0b
	0x0020:  0000 0000 0abc 0500 0000 0000 1011 1213  ................
	0x0030:  1415 1617 1819 1a1b 1c1d 1e1f 2021 2223  .............!"#
	0x0040:  2425 2627 2829 2a2b 2c2d 2e2f 3031 3233  $%&'()*+,-./0123
	0x0050:  3435 3637                                4567
14:01:20.375921 IP (tos 0x0, ttl 64, id 14043, offset 0, flags [none], proto ICMP (1), length 84)
    192.0.2.24 > 192.0.2.17: ICMP echo reply, id 190, seq 98, length 64
	0x0000:  4500 0054 36db 0000 4001 bfa4 c000 0218  E..T6...@.......
	0x0010:  c000 0211 0000 cf52 00be 0062 309c 3062  .......R...b0.0b
	0x0020:  0000 0000 0abc 0500 0000 0000 1011 1213  ................
	0x0030:  1415 1617 1819 1a1b 1c1d 1e1f 2021 2223  .............!"#
	0x0040:  2425 2627 2829 2a2b 2c2d 2e2f 3031 3233  $%&'()*+,-./0123
	0x0050:  3435 3637                                4567
14:01:21.399717 IP (tos 0x0, ttl 64, id 37054, offset 0, flags [DF], proto ICMP (1), length 84)
    192.0.2.17 > 192.0.2.24: ICMP echo request, id 190, seq 99, length 64
	0x0000:  4500 0054 90be 4000 4001 25c1 c000 0211  E..T..@.@.%.....
	0x0010:  c000 0218 0800 8bf4 00be 0063 319c 3062  ...........c1.0b
	0x0020:  0000 0000 4419 0600 0000 0000 1011 1213  ....D...........
	0x0030:  1415 1617 1819 1a1b 1c1d 1e1f 2021 2223  .............!"#
	0x0040:  2425 2627 2829 2a2b 2c2d 2e2f 3031 3233  $%&'()*+,-./0123
	0x0050:  3435 3637                                4567
14:01:21.399731 IP (tos 0x0, ttl 64, id 14250, offset 0, flags [none], proto ICMP (1), length 84)
    192.0.2.24 > 192.0.2.17: ICMP echo reply, id 190, seq 99, length 64
	0x0000:  4500 0054 37aa 0000 4001 bed5 c000 0218  E..T7...@.......
	0x0010:  c000 0211 0000 93f4 00be 0063 319c 3062  ...........c1.0b
	0x0020:  0000 0000 4419 0600 0000 0000 1011 1213  ....D...........
	0x0030:  1415 1617 1819 1a1b 1c1d 1e1f 2021 2223  .............!"#
	0x0040:  2425 2627 2829 2a2b 2c2d 2e2f 3031 3233  $%&'()*+,-./0123
	0x0050:  3435 3637                                4567
14:01:22.423499 IP (tos 0x0, ttl 64, id 37285, offset 0, flags [DF], proto ICMP (1), length 84)
    192.0.2.17 > 192.0.2.24: ICMP echo request, id 190, seq 100, length 64
	0x0000:  4500 0054 91a5 4000 4001 24da c000 0211  E..T..@.@.$.....
	0x0010:  c000 0218 0800 a596 00be 0064 329c 3062  ...........d2.0b
	0x0020:  0000 0000 2976 0600 0000 0000 1011 1213  ....)v..........
	0x0030:  1415 1617 1819 1a1b 1c1d 1e1f 2021 2223  .............!"#
	0x0040:  2425 2627 2829 2a2b 2c2d 2e2f 3031 3233  $%&'()*+,-./0123
	0x0050:  3435 3637                                4567
14:01:22.423513 IP (tos 0x0, ttl 64, id 14381, offset 0, flags [none], proto ICMP (1), length 84)
    192.0.2.24 > 192.0.2.17: ICMP echo reply, id 190, seq 100, length 64
	0x0000:  4500 0054 382d 0000 4001 be52 c000 0218  E..T8-..@..R....
	0x0010:  c000 0211 0000 ad96 00be 0064 329c 3062  ...........d2.0b
	0x0020:  0000 0000 2976 0600 0000 0000 1011 1213  ....)v..........
	0x0030:  1415 1617 1819 1a1b 1c1d 1e1f 2021 2223  .............!"#
	0x0040:  2425 2627 2829 2a2b 2c2d 2e2f 3031 3233  $%&'()*+,-./0123
	0x0050:  3435 3637                                4567
14:01:23.448406 IP (tos 0x0, ttl 64, id 37333, offset 0, flags [DF], proto ICMP (1), length 84)
    192.0.2.17 > 192.0.2.24: ICMP echo request, id 190, seq 101, length 64
	0x0000:  4500 0054 91d5 4000 4001 24aa c000 0211  E..T..@.@.$.....
	0x0010:  c000 0218 0800 7c34 00be 0065 339c 3062  ......|4...e3.0b
	0x0020:  0000 0000 51d7 0600 0000 0000 1011 1213  ....Q...........
	0x0030:  1415 1617 1819 1a1b 1c1d 1e1f 2021 2223  .............!"#
	0x0040:  2425 2627 2829 2a2b 2c2d 2e2f 3031 3233  $%&'()*+,-./0123
	0x0050:  3435 3637                                4567
14:01:23.448436 IP (tos 0x0, ttl 64, id 14626, offset 0, flags [none], proto ICMP (1), length 84)
    192.0.2.24 > 192.0.2.17: ICMP echo reply, id 190, seq 101, length 64
	0x0000:  4500 0054 3922 0000 4001 bd5d c000 0218  E..T9"..@..]....
	0x0010:  c000 0211 0000 8434 00be 0065 339c 3062  .......4...e3.0b
	0x0020:  0000 0000 51d7 0600 0000 0000 1011 1213  ....Q...........
	0x0030:  1415 1617 1819 1a1b 1c1d 1e1f 2021 2223  .............!"#
	0x0040:  2425 2627 2829 2a2b 2c2d 2e2f 3031 3233  $%&'()*+,-./0123
	0x0050:  3435 3637                                4567
14:01:24.471676 IP (tos 0x0, ttl 64, id 37557, offset 0, flags [DF], proto ICMP (1), length 84)
    192.0.2.17 > 192.0.2.24: ICMP echo request, id 190, seq 102, length 64
	0x0000:  4500 0054 92b5 4000 4001 23ca c000 0211  E..T..@.@.#.....
	0x0010:  c000 0218 0800 93d8 00be 0066 349c 3062  ...........f4.0b
	0x0020:  0000 0000 3832 0700 0000 0000 1011 1213  ....82..........
	0x0030:  1415 1617 1819 1a1b 1c1d 1e1f 2021 2223  .............!"#
	0x0040:  2425 2627 2829 2a2b 2c2d 2e2f 3031 3233  $%&'()*+,-./0123
	0x0050:  3435 3637                                4567
14:01:24.471707 IP (tos 0x0, ttl 64, id 14697, offset 0, flags [none], proto ICMP (1), length 84)
    192.0.2.24 > 192.0.2.17: ICMP echo reply, id 190, seq 102, length 64
	0x0000:  4500 0054 3969 0000 4001 bd16 c000 0218  E..T9i..@.......
	0x0010:  c000 0211 0000 9bd8 00be 0066 349c 3062  ...........f4.0b
	0x0020:  0000 0000 3832 0700 0000 0000 1011 1213  ....82..........
	0x0030:  1415 1617 1819 1a1b 1c1d 1e1f 2021 2223  .............!"#
	0x0040:  2425 2627 2829 2a2b 2c2d 2e2f 3031 3233  $%&'()*+,-./0123
	0x0050:  3435 3637                                4567
14:01:25.496153 IP (tos 0x0, ttl 64, id 37752, offset 0, flags [DF], proto ICMP (1), length 84)
    192.0.2.17 > 192.0.2.24: ICMP echo request, id 190, seq 103, length 64
	0x0000:  4500 0054 9378 4000 4001 2307 c000 0211  E..T.x@.@.#.....
	0x0010:  c000 0218 0800 f877 00be 0067 359c 3062  .......w...g5.0b
	0x0020:  0000 0000 d291 0700 0000 0000 1011 1213  ................
	0x0030:  1415 1617 1819 1a1b 1c1d 1e1f 2021 2223  .............!"#
	0x0040:  2425 2627 2829 2a2b 2c2d 2e2f 3031 3233  $%&'()*+,-./0123
	0x0050:  3435 3637                                4567
14:01:25.496185 IP (tos 0x0, ttl 64, id 14941, offset 0, flags [none], proto ICMP (1), length 84)
    192.0.2.24 > 192.0.2.17: ICMP echo reply, id 190, seq 103, length 64
	0x0000:  4500 0054 3a5d 0000 4001 bc22 c000 0218  E..T:]..@.."....
	0x0010:  c000 0211 0000 0078 00be 0067 359c 3062  .......x...g5.0b
	0x0020:  0000 0000 d291 0700 0000 0000 1011 1213  ................
	0x0030:  1415 1617 1819 1a1b 1c1d 1e1f 2021 2223  .............!"#
	0x0040:  2425 2627 2829 2a2b 2c2d 2e2f 3031 3233  $%&'()*+,-./0123
	0x0050:  3435 3637                                4567
14:01:26.519770 IP (tos 0x0, ttl 64, id 37923, offset 0, flags [DF], proto ICMP (1), length 84)
    192.0.2.17 > 192.0.2.24: ICMP echo request, id 190, seq 104, length 64
	0x0000:  4500 0054 9423 4000 4001 225c c000 0211  E..T.#@.@."\....
	0x0010:  c000 0218 0800 b91a 00be 0068 369c 3062  ...........h6.0b
	0x0020:  0000 0000 10ee 0700 0000 0000 1011 1213  ................
	0x0030:  1415 1617 1819 1a1b 1c1d 1e1f 2021 2223  .............!"#
	0x0040:  2425 2627 2829 2a2b 2c2d 2e2f 3031 3233  $%&'()*+,-./0123
	0x0050:  3435 3637                                4567
14:01:26.519803 IP (tos 0x0, ttl 64, id 14988, offset 0, flags [none], proto ICMP (1), length 84)
    192.0.2.24 > 192.0.2.17: ICMP echo reply, id 190, seq 104, length 64
	0x0000:  4500 0054 3a8c 0000 4001 bbf3 c000 0218  E..T:...@.......
	0x0010:  c000 0211 0000 c11a 00be 0068 369c 3062  ...........h6.0b
	0x0020:  0000 0000 10ee 0700 0000 0000 1011 1213  ................
	0x0030:  1415 1617 1819 1a1b 1c1d 1e1f 2021 2223  .............!"#
	0x0040:  2425 2627 2829 2a2b 2c2d 2e2f 3031 3233  $%&'()*+,-./0123
	0x0050:  3435 3637                                4567
14:01:27.543659 IP (tos 0x0, ttl 64, id 38132, offset 0, flags [DF], proto ICMP (1), length 84)
    192.0.2.17 > 192.0.2.24: ICMP echo request, id 190, seq 105, length 64
	0x0000:  4500 0054 94f4 4000 4001 218b c000 0211  E..T..@.@.!.....
	0x0010:  c000 0218 0800 66bc 00be 0069 379c 3062  ......f....i7.0b
	0x0020:  0000 0000 614b 0800 0000 0000 1011 1213  ....aK..........
	0x0030:  1415 1617 1819 1a1b 1c1d 1e1f 2021 2223  .............!"#
	0x0040:  2425 2627 2829 2a2b 2c2d 2e2f 3031 3233  $%&'()*+,-./0123
	0x0050:  3435 3637                                4567
14:01:27.543693 IP (tos 0x0, ttl 64, id 15163, offset 0, flags [none], proto ICMP (1), length 84)
    192.0.2.24 > 192.0.2.17: ICMP echo reply, id 190, seq 105, length 64
	0x0000:  4500 0054 3b3b 0000 4001 bb44 c000 0218  E..T;;..@..D....
	0x0010:  c000 0211 0000 6ebc 00be 0069 379c 3062  ......n....i7.0b
	0x0020:  0000 0000 614b 0800 0000 0000 1011 1213  ....aK..........
	0x0030:  1415 1617 1819 1a1b 1c1d 1e1f 2021 2223  .............!"#
	0x0040:  2425 2627 2829 2a2b 2c2d 2e2f 3031 3233  $%&'()*+,-./0123
	0x0050:  3435 3637                                4567
14:01:28.567896 IP (tos 0x0, ttl 64, id 38292, offset 0, flags [DF], proto ICMP (1), length 84)
    192.0.2.17 > 192.0.2.24: ICMP echo request, id 190, seq 106, length 64
	0x0000:  4500 0054 9594 4000 4001 20eb c000 0211  E..T..@.@.......
	0x0010:  c000 0218 0800 b95c 00be 006a 389c 3062  .......\...j8.0b
	0x0020:  0000 0000 0daa 0800 0000 0000 1011 1213  ................
	0x0030:  1415 1617 1819 1a1b 1c1d 1e1f 2021 2223  .............!"#
	0x0040:  2425 2627 2829 2a2b 2c2d 2e2f 3031 3233  $%&'()*+,-./0123
	0x0050:  3435 3637                                4567
14:01:28.567928 IP (tos 0x0, ttl 64, id 15230, offset 0, flags [none], proto ICMP (1), length 84)
    192.0.2.24 > 192.0.2.17: ICMP echo reply, id 190, seq 106, length 64
	0x0000:  4500 0054 3b7e 0000 4001 bb01 c000 0218  E..T;~..@.......
	0x0010:  c000 0211 0000 c15c 00be 006a 389c 3062  .......\...j8.0b
	0x0020:  0000 0000 0daa 0800 0000 0000 1011 1213  ................
	0x0030:  1415 1617 1819 1a1b 1c1d 1e1f 2021 2223  .............!"#
	0x0040:  2425 2627 2829 2a2b 2c2d 2e2f 3031 3233  $%&'()*+,-./0123
	0x0050:  3435 3637                                4567
14:01:29.591744 IP (tos 0x0, ttl 64, id 38496, offset 0, flags [DF], proto ICMP (1), length 84)
    192.0.2.17 > 192.0.2.24: ICMP echo request, id 190, seq 107, length 64
	0x0000:  4500 0054 9660 4000 4001 201f c000 0211  E..T.`@.@.......
	0x0010:  c000 0218 0800 8dfe 00be 006b 399c 3062  ...........k9.0b
	0x0020:  0000 0000 3707 0900 0000 0000 1011 1213  ....7...........
	0x0030:  1415 1617 1819 1a1b 1c1d 1e1f 2021 2223  .............!"#
	0x0040:  2425 2627 2829 2a2b 2c2d 2e2f 3031 3233  $%&'()*+,-./0123
	0x0050:  3435 3637                                4567
14:01:29.591778 IP (tos 0x0, ttl 64, id 15349, offset 0, flags [none], proto ICMP (1), length 84)
    192.0.2.24 > 192.0.2.17: ICMP echo reply, id 190, seq 107, length 64
	0x0000:  4500 0054 3bf5 0000 4001 ba8a c000 0218  E..T;...@.......
	0x0010:  c000 0211 0000 95fe 00be 006b 399c 3062  ...........k9.0b
	0x0020:  0000 0000 3707 0900 0000 0000 1011 1213  ....7...........
	0x0030:  1415 1617 1819 1a1b 1c1d 1e1f 2021 2223  .............!"#
	0x0040:  2425 2627 2829 2a2b 2c2d 2e2f 3031 3233  $%&'()*+,-./0123
	0x0050:  3435 3637                                4567
14:01:30.615820 IP (tos 0x0, ttl 64, id 38689, offset 0, flags [DF], proto ICMP (1), length 84)
    192.0.2.17 > 192.0.2.24: ICMP echo request, id 190, seq 108, length 64
	0x0000:  4500 0054 9721 4000 4001 1f5e c000 0211  E..T.!@.@..^....
	0x0010:  c000 0218 0800 839f 00be 006c 3a9c 3062  ...........l:.0b
	0x0020:  0000 0000 4065 0900 0000 0000 1011 1213  ....@e..........
	0x0030:  1415 1617 1819 1a1b 1c1d 1e1f 2021 2223  .............!"#
	0x0040:  2425 2627 2829 2a2b 2c2d 2e2f 3031 3233  $%&'()*+,-./0123
	0x0050:  3435 3637                                4567
14:01:30.615854 IP (tos 0x0, ttl 64, id 15533, offset 0, flags [none], proto ICMP (1), length 84)
    192.0.2.24 > 192.0.2.17: ICMP echo reply, id 190, seq 108, length 64
	0x0000:  4500 0054 3cad 0000 4001 b9d2 c000 0218  E..T<...@.......
	0x0010:  c000 0211 0000 8b9f 00be 006c 3a9c 3062  ...........l:.0b
	0x0020:  0000 0000 4065 0900 0000 0000 1011 1213  ....@e..........
	0x0030:  1415 1617 1819 1a1b 1c1d 1e1f 2021 2223  .............!"#
	0x0040:  2425 2627 2829 2a2b 2c2d 2e2f 3031 3233  $%&'()*+,-./0123
	0x0050:  3435 3637                                4567
14:01:31.640135 IP (tos 0x0, ttl 64, id 38914, offset 0, flags [DF], proto ICMP (1), length 84)
    192.0.2.17 > 192.0.2.24: ICMP echo request, id 190, seq 109, length 64
	0x0000:  4500 0054 9802 4000 4001 1e7d c000 0211  E..T..@.@..}....
	0x0010:  c000 0218 0800 673f 00be 006d 3b9c 3062  ......g?...m;.0b
	0x0020:  0000 0000 5bc4 0900 0000 0000 1011 1213  ....[...........
	0x0030:  1415 1617 1819 1a1b 1c1d 1e1f 2021 2223  .............!"#
	0x0040:  2425 2627 2829 2a2b 2c2d 2e2f 3031 3233  $%&'()*+,-./0123
	0x0050:  3435 3637                                4567
14:01:31.640155 IP (tos 0x0, ttl 64, id 15543, offset 0, flags [none], proto ICMP (1), length 84)
    192.0.2.24 > 192.0.2.17: ICMP echo reply, id 190, seq 109, length 64
	0x0000:  4500 0054 3cb7 0000 4001 b9c8 c000 0218  E..T<...@.......
	0x0010:  c000 0211 0000 6f3f 00be 006d 3b9c 3062  ......o?...m;.0b
	0x0020:  0000 0000 5bc4 0900 0000 0000 1011 1213  ....[...........
	0x0030:  1415 1617 1819 1a1b 1c1d 1e1f 2021 2223  .............!"#
	0x0040:  2425 2627 2829 2a2b 2c2d 2e2f 3031 3233  $%&'()*+,-./0123
	0x0050:  3435 3637                                4567
14:01:32.663982 IP (tos 0x0, ttl 64, id 39081, offset 0, flags [DF], proto ICMP (1), length 84)
    192.0.2.17 > 192.0.2.24: ICMP echo request, id 190, seq 110, length 64
	0x0000:  4500 0054 98a9 4000 4001 1dd6 c000 0211  E..T..@.@.......
	0x0010:  c000 0218 0800 33e1 00be 006e 3c9c 3062  ......3....n<.0b
	0x0020:  0000 0000 8d21 0a00 0000 0000 1011 1213  .....!..........
	0x0030:  1415 1617 1819 1a1b 1c1d 1e1f 2021 2223  .............!"#
	0x0040:  2425 2627 2829 2a2b 2c2d 2e2f 3031 3233  $%&'()*+,-./0123
	0x0050:  3435 3637                                4567
14:01:32.663996 IP (tos 0x0, ttl 64, id 15650, offset 0, flags [none], proto ICMP (1), length 84)
    192.0.2.24 > 192.0.2.17: ICMP echo reply, id 190, seq 110, length 64
	0x0000:  4500 0054 3d22 0000 4001 b95d c000 0218  E..T="..@..]....
	0x0010:  c000 0211 0000 3be1 00be 006e 3c9c 3062  ......;....n<.0b
	0x0020:  0000 0000 8d21 0a00 0000 0000 1011 1213  .....!..........
	0x0030:  1415 1617 1819 1a1b 1c1d 1e1f 2021 2223  .............!"#
	0x0040:  2425 2627 2829 2a2b 2c2d 2e2f 3031 3233  $%&'()*+,-./0123
	0x0050:  3435 3637                                4567
14:01:33.687930 IP (tos 0x0, ttl 64, id 39113, offset 0, flags [DF], proto ICMP (1), length 84)
    192.0.2.17 > 192.0.2.24: ICMP echo request, id 190, seq 111, length 64
	0x0000:  4500 0054 98c9 4000 4001 1db6 c000 0211  E..T..@.@.......
	0x0010:  c000 0218 0800 d282 00be 006f 3d9c 3062  ...........o=.0b
	0x0020:  0000 0000 ed7e 0a00 0000 0000 1011 1213  .....~..........
	0x0030:  1415 1617 1819 1a1b 1c1d 1e1f 2021 2223  .............!"#
	0x0040:  2425 2627 2829 2a2b 2c2d 2e2f 3031 3233  $%&'()*+,-./0123
	0x0050:  3435 3637                                4567
14:01:33.687965 IP (tos 0x0, ttl 64, id 15728, offset 0, flags [none], proto ICMP (1), length 84)
    192.0.2.24 > 192.0.2.17: ICMP echo reply, id 190, seq 111, length 64
	0x0000:  4500 0054 3d70 0000 4001 b90f c000 0218  E..T=p..@.......
	0x0010:  c000 0211 0000 da82 00be 006f 3d9c 3062  ...........o=.0b
	0x0020:  0000 0000 ed7e 0a00 0000 0000 1011 1213  .....~..........
	0x0030:  1415 1617 1819 1a1b 1c1d 1e1f 2021 2223  .............!"#
	0x0040:  2425 2627 2829 2a2b 2c2d 2e2f 3031 3233  $%&'()*+,-./0123
	0x0050:  3435 3637                                4567
14:01:34.712089 IP (tos 0x0, ttl 64, id 39287, offset 0, flags [DF], proto ICMP (1), length 84)
    192.0.2.17 > 192.0.2.24: ICMP echo request, id 190, seq 112, length 64
	0x0000:  4500 0054 9977 4000 4001 1d08 c000 0211  E..T.w@.@.......
	0x0010:  c000 0218 0800 7223 00be 0070 3e9c 3062  ......r#...p>.0b
	0x0020:  0000 0000 4cdd 0a00 0000 0000 1011 1213  ....L...........
	0x0030:  1415 1617 1819 1a1b 1c1d 1e1f 2021 2223  .............!"#
	0x0040:  2425 2627 2829 2a2b 2c2d 2e2f 3031 3233  $%&'()*+,-./0123
	0x0050:  3435 3637                                4567
14:01:34.712125 IP (tos 0x0, ttl 64, id 15755, offset 0, flags [none], proto ICMP (1), length 84)
    192.0.2.24 > 192.0.2.17: ICMP echo reply, id 190, seq 112, length 64
	0x0000:  4500 0054 3d8b 0000 4001 b8f4 c000 0218  E..T=...@.......
	0x0010:  c000 0211 0000 7a23 00be 0070 3e9c 3062  ......z#...p>.0b
	0x0020:  0000 0000 4cdd 0a00 0000 0000 1011 1213  ....L...........
	0x0030:  1415 1617 1819 1a1b 1c1d 1e1f 2021 2223  .............!"#
	0x0040:  2425 2627 2829 2a2b 2c2d 2e2f 3031 3233  $%&'()*+,-./0123
	0x0050:  3435 3637                                4567
14:01:35.736065 IP (tos 0x0, ttl 64, id 39473, offset 0, flags [DF], proto ICMP (1), length 84)
    192.0.2.17 > 192.0.2.24: ICMP echo request, id 190, seq 113, length 64
	0x0000:  4500 0054 9a31 4000 4001 1c4e c000 0211  E..T.1@.@..N....
	0x0010:  c000 0218 0800 c7c4 00be 0071 3f9c 3062  ...........q?.0b
	0x0020:  0000 0000 f53a 0b00 0000 0000 1011 1213  .....:..........
	0x0030:  1415 1617 1819 1a1b 1c1d 1e1f 2021 2223  .............!"#
	0x0040:  2425 2627 2829 2a2b 2c2d 2e2f 3031 3233  $%&'()*+,-./0123
	0x0050:  3435 3637                                4567
14:01:35.736098 IP (tos 0x0, ttl 64, id 15902, offset 0, flags [none], proto ICMP (1), length 84)
    192.0.2.24 > 192.0.2.17: ICMP echo reply, id 190, seq 113, length 64
	0x0000:  4500 0054 3e1e 0000 4001 b861 c000 0218  E..T>...@..a....
	0x0010:  c000 0211 0000 cfc4 00be 0071 3f9c 3062  ...........q?.0b
	0x0020:  0000 0000 f53a 0b00 0000 0000 1011 1213  .....:..........
	0x0030:  1415 1617 1819 1a1b 1c1d 1e1f 2021 2223  .............!"#
	0x0040:  2425 2627 2829 2a2b 2c2d 2e2f 3031 3233  $%&'()*+,-./0123
	0x0050:  3435 3637                                4567
14:01:36.760525 IP (tos 0x0, ttl 64, id 39640, offset 0, flags [DF], proto ICMP (1), length 84)
    192.0.2.17 > 192.0.2.24: ICMP echo request, id 190, seq 114, length 64
	0x0000:  4500 0054 9ad8 4000 4001 1ba7 c000 0211  E..T..@.@.......
	0x0010:  c000 0218 0800 3564 00be 0072 409c 3062  ......5d...r@.0b
	0x0020:  0000 0000 869a 0b00 0000 0000 1011 1213  ................
	0x0030:  1415 1617 1819 1a1b 1c1d 1e1f 2021 2223  .............!"#
	0x0040:  2425 2627 2829 2a2b 2c2d 2e2f 3031 3233  $%&'()*+,-./0123
	0x0050:  3435 3637                                4567
14:01:36.760576 IP (tos 0x0, ttl 64, id 15977, offset 0, flags [none], proto ICMP (1), length 84)
    192.0.2.24 > 192.0.2.17: ICMP echo reply, id 190, seq 114, length 64
	0x0000:  4500 0054 3e69 0000 4001 b816 c000 0218  E..T>i..@.......
	0x0010:  c000 0211 0000 3d64 00be 0072 409c 3062  ......=d...r@.0b
	0x0020:  0000 0000 869a 0b00 0000 0000 1011 1213  ................
	0x0030:  1415 1617 1819 1a1b 1c1d 1e1f 2021 2223  .............!"#
	0x0040:  2425 2627 2829 2a2b 2c2d 2e2f 3031 3233  $%&'()*+,-./0123
	0x0050:  3435 3637                                4567
14:01:37.783672 IP (tos 0x0, ttl 64, id 39701, offset 0, flags [DF], proto ICMP (1), length 84)
    192.0.2.17 > 192.0.2.24: ICMP echo request, id 190, seq 115, length 64
	0x0000:  4500 0054 9b15 4000 4001 1b6a c000 0211  E..T..@.@..j....
	0x0010:  c000 0218 0800 cd08 00be 0073 419c 3062  ...........sA.0b
	0x0020:  0000 0000 edf4 0b00 0000 0000 1011 1213  ................
	0x0030:  1415 1617 1819 1a1b 1c1d 1e1f 2021 2223  .............!"#
	0x0040:  2425 2627 2829 2a2b 2c2d 2e2f 3031 3233  $%&'()*+,-./0123
	0x0050:  3435 3637                                4567
14:01:37.783706 IP (tos 0x0, ttl 64, id 16156, offset 0, flags [none], proto ICMP (1), length 84)
    192.0.2.24 > 192.0.2.17: ICMP echo reply, id 190, seq 115, length 64
	0x0000:  4500 0054 3f1c 0000 4001 b763 c000 0218  E..T?...@..c....
	0x0010:  c000 0211 0000 d508 00be 0073 419c 3062  ...........sA.0b
	0x0020:  0000 0000 edf4 0b00 0000 0000 1011 1213  ................
	0x0030:  1415 1617 1819 1a1b 1c1d 1e1f 2021 2223  .............!"#
	0x0040:  2425 2627 2829 2a2b 2c2d 2e2f 3031 3233  $%&'()*+,-./0123
	0x0050:  3435 3637                                4567
14:01:38.808207 IP (tos 0x0, ttl 64, id 39861, offset 0, flags [DF], proto ICMP (1), length 84)
    192.0.2.17 > 192.0.2.24: ICMP echo request, id 190, seq 116, length 64
	0x0000:  4500 0054 9bb5 4000 4001 1aca c000 0211  E..T..@.@.......
	0x0010:  c000 0218 0800 f4a7 00be 0074 429c 3062  ...........tB.0b
	0x0020:  0000 0000 c454 0c00 0000 0000 1011 1213  .....T..........
	0x0030:  1415 1617 1819 1a1b 1c1d 1e1f 2021 2223  .............!"#
	0x0040:  2425 2627 2829 2a2b 2c2d 2e2f 3031 3233  $%&'()*+,-./0123
	0x0050:  3435 3637                                4567
14:01:38.808240 IP (tos 0x0, ttl 64, id 16267, offset 0, flags [none], proto ICMP (1), length 84)
    192.0.2.24 > 192.0.2.17: ICMP echo reply, id 190, seq 116, length 64
	0x0000:  4500 0054 3f8b 0000 4001 b6f4 c000 0218  E..T?...@.......
	0x0010:  c000 0211 0000 fca7 00be 0074 429c 3062  ...........tB.0b
	0x0020:  0000 0000 c454 0c00 0000 0000 1011 1213  .....T..........
	0x0030:  1415 1617 1819 1a1b 1c1d 1e1f 2021 2223  .............!"#
	0x0040:  2425 2627 2829 2a2b 2c2d 2e2f 3031 3233  $%&'()*+,-./0123
	0x0050:  3435 3637                                4567
14:01:39.832184 IP (tos 0x0, ttl 64, id 39895, offset 0, flags [DF], proto ICMP (1), length 84)
    192.0.2.17 > 192.0.2.24: ICMP echo request, id 190, seq 117, length 64
	0x0000:  4500 0054 9bd7 4000 4001 1aa8 c000 0211  E..T..@.@.......
	0x0010:  c000 0218 0800 4b49 00be 0075 439c 3062  ......KI...uC.0b
	0x0020:  0000 0000 6cb2 0c00 0000 0000 1011 1213  ....l...........
	0x0030:  1415 1617 1819 1a1b 1c1d 1e1f 2021 2223  .............!"#
	0x0040:  2425 2627 2829 2a2b 2c2d 2e2f 3031 3233  $%&'()*+,-./0123
	0x0050:  3435 3637                                4567
14:01:39.832220 IP (tos 0x0, ttl 64, id 16335, offset 0, flags [none], proto ICMP (1), length 84)
    192.0.2.24 > 192.0.2.17: ICMP echo reply, id 190, seq 117, length 64
	0x0000:  4500 0054 3fcf 0000 4001 b6b0 c000 0218  E..T?...@.......
	0x0010:  c000 0211 0000 5349 00be 0075 439c 3062  ......SI...uC.0b
	0x0020:  0000 0000 6cb2 0c00 0000 0000 1011 1213  ....l...........
	0x0030:  1415 1617 1819 1a1b 1c1d 1e1f 2021 2223  .............!"#
	0x0040:  2425 2627 2829 2a2b 2c2d 2e2f 3031 3233  $%&'()*+,-./0123
	0x0050:  3435 3637                                4567
14:01:40.855688 IP (tos 0x0, ttl 64, id 40020, offset 0, flags [DF], proto ICMP (1), length 84)
    192.0.2.17 > 192.0.2.24: ICMP echo request, id 190, seq 118, length 64
	0x0000:  4500 0054 9c54 4000 4001 1a2b c000 0211  E..T.T@.@..+....
	0x0010:  c000 0218 0800 56ec 00be 0076 449c 3062  ......V....vD.0b
	0x0020:  0000 0000 5f0e 0d00 0000 0000 1011 1213  ...._...........
	0x0030:  1415 1617 1819 1a1b 1c1d 1e1f 2021 2223  .............!"#
	0x0040:  2425 2627 2829 2a2b 2c2d 2e2f 3031 3233  $%&'()*+,-./0123
	0x0050:  3435 3637                                4567
14:01:40.855705 IP (tos 0x0, ttl 64, id 16573, offset 0, flags [none], proto ICMP (1), length 84)
    192.0.2.24 > 192.0.2.17: ICMP echo reply, id 190, seq 118, length 64
	0x0000:  4500 0054 40bd 0000 4001 b5c2 c000 0218  E..T@...@.......
	0x0010:  c000 0211 0000 5eec 00be 0076 449c 3062  ......^....vD.0b
	0x0020:  0000 0000 5f0e 0d00 0000 0000 1011 1213  ...._...........
	0x0030:  1415 1617 1819 1a1b 1c1d 1e1f 2021 2223  .............!"#
	0x0040:  2425 2627 2829 2a2b 2c2d 2e2f 3031 3233  $%&'()*+,-./0123
	0x0050:  3435 3637                                4567
14:01:41.880393 IP (tos 0x0, ttl 64, id 40225, offset 0, flags [DF], proto ICMP (1), length 84)
    192.0.2.17 > 192.0.2.24: ICMP echo request, id 190, seq 119, length 64
	0x0000:  4500 0054 9d21 4000 4001 195e c000 0211  E..T.!@.@..^....
	0x0010:  c000 0218 0800 f18a 00be 0077 459c 3062  ...........wE.0b
	0x0020:  0000 0000 c36e 0d00 0000 0000 1011 1213  .....n..........
	0x0030:  1415 1617 1819 1a1b 1c1d 1e1f 2021 2223  .............!"#
	0x0040:  2425 2627 2829 2a2b 2c2d 2e2f 3031 3233  $%&'()*+,-./0123
	0x0050:  3435 3637                                4567
14:01:41.880425 IP (tos 0x0, ttl 64, id 16598, offset 0, flags [none], proto ICMP (1), length 84)
    192.0.2.24 > 192.0.2.17: ICMP echo reply, id 190, seq 119, length 64
	0x0000:  4500 0054 40d6 0000 4001 b5a9 c000 0218  E..T@...@.......
	0x0010:  c000 0211 0000 f98a 00be 0077 459c 3062  ...........wE.0b
	0x0020:  0000 0000 c36e 0d00 0000 0000 1011 1213  .....n..........
	0x0030:  1415 1617 1819 1a1b 1c1d 1e1f 2021 2223  .............!"#
	0x0040:  2425 2627 2829 2a2b 2c2d 2e2f 3031 3233  $%&'()*+,-./0123
	0x0050:  3435 3637                                4567
14:01:42.903651 IP (tos 0x0, ttl 64, id 40358, offset 0, flags [DF], proto ICMP (1), length 84)
    192.0.2.17 > 192.0.2.24: ICMP echo request, id 190, seq 120, length 64
	0x0000:  4500 0054 9da6 4000 4001 18d9 c000 0211  E..T..@.@.......
	0x0010:  c000 0218 0800 f02e 00be 0078 469c 3062  ...........xF.0b
	0x0020:  0000 0000 c3c9 0d00 0000 0000 1011 1213  ................
	0x0030:  1415 1617 1819 1a1b 1c1d 1e1f 2021 2223  .............!"#
	0x0040:  2425 2627 2829 2a2b 2c2d 2e2f 3031 3233  $%&'()*+,-./0123
	0x0050:  3435 3637                                4567
14:01:42.903665 IP (tos 0x0, ttl 64, id 16820, offset 0, flags [none], proto ICMP (1), length 84)
    192.0.2.24 > 192.0.2.17: ICMP echo reply, id 190, seq 120, length 64
	0x0000:  4500 0054 41b4 0000 4001 b4cb c000 0218  E..TA...@.......
	0x0010:  c000 0211 0000 f82e 00be 0078 469c 3062  ...........xF.0b
	0x0020:  0000 0000 c3c9 0d00 0000 0000 1011 1213  ................
	0x0030:  1415 1617 1819 1a1b 1c1d 1e1f 2021 2223  .............!"#
	0x0040:  2425 2627 2829 2a2b 2c2d 2e2f 3031 3233  $%&'()*+,-./0123
	0x0050:  3435 3637                                4567
14:01:43.928091 IP (tos 0x0, ttl 64, id 40505, offset 0, flags [DF], proto ICMP (1), length 84)
    192.0.2.17 > 192.0.2.24: ICMP echo request, id 190, seq 121, length 64
	0x0000:  4500 0054 9e39 4000 4001 1846 c000 0211  E..T.9@.@..F....
	0x0010:  c000 0218 0800 9cce 00be 0079 479c 3062  ...........yG.0b
	0x0020:  0000 0000 1529 0e00 0000 0000 1011 1213  .....)..........
	0x0030:  1415 1617 1819 1a1b 1c1d 1e1f 2021 2223  .............!"#
	0x0040:  2425 2627 2829 2a2b 2c2d 2e2f 3031 3233  $%&'()*+,-./0123
	0x0050:  3435 3637                                4567
14:01:43.928123 IP (tos 0x0, ttl 64, id 17003, offset 0, flags [none], proto ICMP (1), length 84)
    192.0.2.24 > 192.0.2.17: ICMP echo reply, id 190, seq 121, length 64
	0x0000:  4500 0054 426b 0000 4001 b414 c000 0218  E..TBk..@.......
	0x0010:  c000 0211 0000 a4ce 00be 0079 479c 3062  ...........yG.0b
	0x0020:  0000 0000 1529 0e00 0000 0000 1011 1213  .....)..........
	0x0030:  1415 1617 1819 1a1b 1c1d 1e1f 2021 2223  .............!"#
	0x0040:  2425 2627 2829 2a2b 2c2d 2e2f 3031 3233  $%&'()*+,-./0123
	0x0050:  3435 3637                                4567
14:01:44.952325 IP (tos 0x0, ttl 64, id 40641, offset 0, flags [DF], proto ICMP (1), length 84)
    192.0.2.17 > 192.0.2.24: ICMP echo request, id 190, seq 122, length 64
	0x0000:  4500 0054 9ec1 4000 4001 17be c000 0211  E..T..@.@.......
	0x0010:  c000 0218 0800 056f 00be 007a 489c 3062  .......o...zH.0b
	0x0020:  0000 0000 ab87 0e00 0000 0000 1011 1213  ................
	0x0030:  1415 1617 1819 1a1b 1c1d 1e1f 2021 2223  .............!"#
	0x0040:  2425 2627 2829 2a2b 2c2d 2e2f 3031 3233  $%&'()*+,-./0123
	0x0050:  3435 3637                                4567
14:01:44.952369 IP (tos 0x0, ttl 64, id 17103, offset 0, flags [none], proto ICMP (1), length 84)
    192.0.2.24 > 192.0.2.17: ICMP echo reply, id 190, seq 122, length 64
	0x0000:  4500 0054 42cf 0000 4001 b3b0 c000 0218  E..TB...@.......
	0x0010:  c000 0211 0000 0d6f 00be 007a 489c 3062  .......o...zH.0b
	0x0020:  0000 0000 ab87 0e00 0000 0000 1011 1213  ................
	0x0030:  1415 1617 1819 1a1b 1c1d 1e1f 2021 2223  .............!"#
	0x0040:  2425 2627 2829 2a2b 2c2d 2e2f 3031 3233  $%&'()*+,-./0123
	0x0050:  3435 3637                                4567
14:01:45.976228 IP (tos 0x0, ttl 64, id 40732, offset 0, flags [DF], proto ICMP (1), length 84)
    192.0.2.17 > 192.0.2.24: ICMP echo request, id 190, seq 123, length 64
	0x0000:  4500 0054 9f1c 4000 4001 1763 c000 0211  E..T..@.@..c....
	0x0010:  c000 0218 0800 9610 00be 007b 499c 3062  ...........{I.0b
	0x0020:  0000 0000 19e5 0e00 0000 0000 1011 1213  ................
	0x0030:  1415 1617 1819 1a1b 1c1d 1e1f 2021 2223  .............!"#
	0x0040:  2425 2627 2829 2a2b 2c2d 2e2f 3031 3233  $%&'()*+,-./0123
	0x0050:  3435 3637                                4567
14:01:45.976261 IP (tos 0x0, ttl 64, id 17318, offset 0, flags [none], proto ICMP (1), length 84)
    192.0.2.24 > 192.0.2.17: ICMP echo reply, id 190, seq 123, length 64
	0x0000:  4500 0054 43a6 0000 4001 b2d9 c000 0218  E..TC...@.......
	0x0010:  c000 0211 0000 9e10 00be 007b 499c 3062  ...........{I.0b
	0x0020:  0000 0000 19e5 0e00 0000 0000 1011 1213  ................
	0x0030:  1415 1617 1819 1a1b 1c1d 1e1f 2021 2223  .............!"#
	0x0040:  2425 2627 2829 2a2b 2c2d 2e2f 3031 3233  $%&'()*+,-./0123
	0x0050:  3435 3637                                4567
14:01:46.999711 IP (tos 0x0, ttl 64, id 40823, offset 0, flags [DF], proto ICMP (1), length 84)
    192.0.2.17 > 192.0.2.24: ICMP echo request, id 190, seq 124, length 64
	0x0000:  4500 0054 9f77 4000 4001 1708 c000 0211  E..T.w@.@.......
	0x0010:  c000 0218 0800 d7b3 00be 007c 4a9c 3062  ...........|J.0b
	0x0020:  0000 0000 d640 0f00 0000 0000 1011 1213  .....@..........
	0x0030:  1415 1617 1819 1a1b 1c1d 1e1f 2021 2223  .............!"#
	0x0040:  2425 2627 2829 2a2b 2c2d 2e2f 3031 3233  $%&'()*+,-./0123
	0x0050:  3435 3637                                4567
14:01:46.999745 IP (tos 0x0, ttl 64, id 17471, offset 0, flags [none], proto ICMP (1), length 84)
    192.0.2.24 > 192.0.2.17: ICMP echo reply, id 190, seq 124, length 64
	0x0000:  4500 0054 443f 0000 4001 b240 c000 0218  E..TD?..@..@....
	0x0010:  c000 0211 0000 dfb3 00be 007c 4a9c 3062  ...........|J.0b
	0x0020:  0000 0000 d640 0f00 0000 0000 1011 1213  .....@..........
	0x0030:  1415 1617 1819 1a1b 1c1d 1e1f 2021 2223  .............!"#
	0x0040:  2425 2627 2829 2a2b 2c2d 2e2f 3031 3233  $%&'()*+,-./0123
	0x0050:  3435 3637                                4567
14:01:48.024342 IP (tos 0x0, ttl 64, id 40847, offset 0, flags [DF], proto ICMP (1), length 84)
    192.0.2.17 > 192.0.2.24: ICMP echo request, id 190, seq 125, length 64
	0x0000:  4500 0054 9f8f 4000 4001 16f0 c000 0211  E..T..@.@.......
	0x0010:  c000 0218 0800 f094 00be 007d 4c9c 3062  ...........}L.0b
	0x0020:  0000 0000 ca5e 0000 0000 0000 1011 1213  .....^..........
	0x0030:  1415 1617 1819 1a1b 1c1d 1e1f 2021 2223  .............!"#
	0x0040:  2425 2627 2829 2a2b 2c2d 2e2f 3031 3233  $%&'()*+,-./0123
	0x0050:  3435 3637                                4567
14:01:48.024375 IP (tos 0x0, ttl 64, id 17612, offset 0, flags [none], proto ICMP (1), length 84)
    192.0.2.24 > 192.0.2.17: ICMP echo reply, id 190, seq 125, length 64
	0x0000:  4500 0054 44cc 0000 4001 b1b3 c000 0218  E..TD...@.......
	0x0010:  c000 0211 0000 f894 00be 007d 4c9c 3062  ...........}L.0b
	0x0020:  0000 0000 ca5e 0000 0000 0000 1011 1213  .....^..........
	0x0030:  1415 1617 1819 1a1b 1c1d 1e1f 2021 2223  .............!"#
	0x0040:  2425 2627 2829 2a2b 2c2d 2e2f 3031 3233  $%&'()*+,-./0123
	0x0050:  3435 3637                                4567
14:01:49.047907 IP (tos 0x0, ttl 64, id 40937, offset 0, flags [DF], proto ICMP (1), length 84)
    192.0.2.17 > 192.0.2.24: ICMP echo request, id 190, seq 126, length 64
	0x0000:  4500 0054 9fe9 4000 4001 1696 c000 0211  E..T..@.@.......
	0x0010:  c000 0218 0800 e037 00be 007e 4d9c 3062  .......7...~M.0b
	0x0020:  0000 0000 d9ba 0000 0000 0000 1011 1213  ................
	0x0030:  1415 1617 1819 1a1b 1c1d 1e1f 2021 2223  .............!"#
	0x0040:  2425 2627 2829 2a2b 2c2d 2e2f 3031 3233  $%&'()*+,-./0123
	0x0050:  3435 3637                                4567
14:01:49.047942 IP (tos 0x0, ttl 64, id 17648, offset 0, flags [none], proto ICMP (1), length 84)
    192.0.2.24 > 192.0.2.17: ICMP echo reply, id 190, seq 126, length 64
	0x0000:  4500 0054 44f0 0000 4001 b18f c000 0218  E..TD...@.......
	0x0010:  c000 0211 0000 e837 00be 007e 4d9c 3062  .......7...~M.0b
	0x0020:  0000 0000 d9ba 0000 0000 0000 1011 1213  ................
	0x0030:  1415 1617 1819 1a1b 1c1d 1e1f 2021 2223  .............!"#
	0x0040:  2425 2627 2829 2a2b 2c2d 2e2f 3031 3233  $%&'()*+,-./0123
	0x0050:  3435 3637                                4567
14:01:50.071989 IP (tos 0x0, ttl 64, id 41190, offset 0, flags [DF], proto ICMP (1), length 84)
    192.0.2.17 > 192.0.2.24: ICMP echo request, id 190, seq 127, length 64
	0x0000:  4500 0054 a0e6 4000 4001 1599 c000 0211  E..T..@.@.......
	0x0010:  c000 0218 0800 f9d8 00be 007f 4e9c 3062  ............N.0b
	0x0020:  0000 0000 be18 0100 0000 0000 1011 1213  ................
	0x0030:  1415 1617 1819 1a1b 1c1d 1e1f 2021 2223  .............!"#
	0x0040:  2425 2627 2829 2a2b 2c2d 2e2f 3031 3233  $%&'()*+,-./0123
	0x0050:  3435 3637                                4567
14:01:50.072015 IP (tos 0x0, ttl 64, id 17716, offset 0, flags [none], proto ICMP (1), length 84)
    192.0.2.24 > 192.0.2.17: ICMP echo reply, id 190, seq 127, length 64
	0x0000:  4500 0054 4534 0000 4001 b14b c000 0218  E..TE4..@..K....
	0x0010:  c000 0211 0000 01d9 00be 007f 4e9c 3062  ............N.0b
	0x0020:  0000 0000 be18 0100 0000 0000 1011 1213  ................
	0x0030:  1415 1617 1819 1a1b 1c1d 1e1f 2021 2223  .............!"#
	0x0040:  2425 2627 2829 2a2b 2c2d 2e2f 3031 3233  $%&'()*+,-./0123
	0x0050:  3435 3637                                4567
14:01:51.096384 IP (tos 0x0, ttl 64, id 41398, offset 0, flags [DF], proto ICMP (1), length 84)
    192.0.2.17 > 192.0.2.24: ICMP echo request, id 190, seq 128, length 64
	0x0000:  4500 0054 a1b6 4000 4001 14c9 c000 0211  E..T..@.@.......
	0x0010:  c000 0218 0800 7c78 00be 0080 4f9c 3062  ......|x....O.0b
	0x0020:  0000 0000 3a78 0100 0000 0000 1011 1213  ....:x..........
	0x0030:  1415 1617 1819 1a1b 1c1d 1e1f 2021 2223  .............!"#
	0x0040:  2425 2627 2829 2a2b 2c2d 2e2f 3031 3233  $%&'()*+,-./0123
	0x0050:  3435 3637                                4567
14:01:51.096416 IP (tos 0x0, ttl 64, id 17776, offset 0, flags [none], proto ICMP (1), length 84)
    192.0.2.24 > 192.0.2.17: ICMP echo reply, id 190, seq 128, length 64
	0x0000:  4500 0054 4570 0000 4001 b10f c000 0218  E..TEp..@.......
	0x0010:  c000 0211 0000 8478 00be 0080 4f9c 3062  .......x....O.0b
	0x0020:  0000 0000 3a78 0100 0000 0000 1011 1213  ....:x..........
	0x0030:  1415 1617 1819 1a1b 1c1d 1e1f 2021 2223  .............!"#
	0x0040:  2425 2627 2829 2a2b 2c2d 2e2f 3031 3233  $%&'()*+,-./0123
	0x0050:  3435 3637                                4567
14:01:52.119890 IP (tos 0x0, ttl 64, id 41529, offset 0, flags [DF], proto ICMP (1), length 84)
    192.0.2.17 > 192.0.2.24: ICMP echo request, id 190, seq 129, length 64
	0x0000:  4500 0054 a239 4000 4001 1446 c000 0211  E..T.9@.@..F....
	0x0010:  c000 0218 0800 9f1b 00be 0081 509c 3062  ............P.0b
	0x0020:  0000 0000 16d4 0100 0000 0000 1011 1213  ................
	0x0030:  1415 1617 1819 1a1b 1c1d 1e1f 2021 2223  .............!"#
	0x0040:  2425 2627 2829 2a2b 2c2d 2e2f 3031 3233  $%&'()*+,-./0123
	0x0050:  3435 3637                                4567
14:01:52.119989 IP (tos 0x0, ttl 64, id 17909, offset 0, flags [none], proto ICMP (1), length 84)
    192.0.2.24 > 192.0.2.17: ICMP echo reply, id 190, seq 129, length 64
	0x0000:  4500 0054 45f5 0000 4001 b08a c000 0218  E..TE...@.......
	0x0010:  c000 0211 0000 a71b 00be 0081 509c 3062  ............P.0b
	0x0020:  0000 0000 16d4 0100 0000 0000 1011 1213  ................
	0x0030:  1415 1617 1819 1a1b 1c1d 1e1f 2021 2223  .............!"#
	0x0040:  2425 2627 2829 2a2b 2c2d 2e2f 3031 3233  $%&'()*+,-./0123
	0x0050:  3435 3637                                4567
14:01:53.143891 IP (tos 0x0, ttl 64, id 41733, offset 0, flags [DF], proto ICMP (1), length 84)
    192.0.2.17 > 192.0.2.24: ICMP echo request, id 190, seq 130, length 64
	0x0000:  4500 0054 a305 4000 4001 137a c000 0211  E..T..@.@..z....
	0x0010:  c000 0218 0800 c3bc 00be 0082 519c 3062  ............Q.0b
	0x0020:  0000 0000 f031 0200 0000 0000 1011 1213  .....1..........
	0x0030:  1415 1617 1819 1a1b 1c1d 1e1f 2021 2223  .............!"#
	0x0040:  2425 2627 2829 2a2b 2c2d 2e2f 3031 3233  $%&'()*+,-./0123
	0x0050:  3435 3637                                4567
14:01:53.143908 IP (tos 0x0, ttl 64, id 18084, offset 0, flags [none], proto ICMP (1), length 84)
    192.0.2.24 > 192.0.2.17: ICMP echo reply, id 190, seq 130, length 64
	0x0000:  4500 0054 46a4 0000 4001 afdb c000 0218  E..TF...@.......
	0x0010:  c000 0211 0000 cbbc 00be 0082 519c 3062  ............Q.0b
	0x0020:  0000 0000 f031 0200 0000 0000 1011 1213  .....1..........
	0x0030:  1415 1617 1819 1a1b 1c1d 1e1f 2021 2223  .............!"#
	0x0040:  2425 2627 2829 2a2b 2c2d 2e2f 3031 3233  $%&'()*+,-./0123
	0x0050:  3435 3637                                4567
14:01:54.168904 IP (tos 0x0, ttl 64, id 41878, offset 0, flags [DF], proto ICMP (1), length 84)
    192.0.2.17 > 192.0.2.24: ICMP echo request, id 190, seq 131, length 64
	0x0000:  4500 0054 a396 4000 4001 12e9 c000 0211  E..T..@.@.......
	0x0010:  c000 0218 0800 285a 00be 0083 529c 3062  ......(Z....R.0b
	0x0020:  0000 0000 8a93 0200 0000 0000 1011 1213  ................
	0x0030:  1415 1617 1819 1a1b 1c1d 1e1f 2021 2223  .............!"#
	0x0040:  2425 2627 2829 2a2b 2c2d 2e2f 3031 3233  $%&'()*+,-./0123
	0x0050:  3435 3637                                4567
14:01:54.168934 IP (tos 0x0, ttl 64, id 18279, offset 0, flags [none], proto ICMP (1), length 84)
    192.0.2.24 > 192.0.2.17: ICMP echo reply, id 190, seq 131, length 64
	0x0000:  4500 0054 4767 0000 4001 af18 c000 0218  E..TGg..@.......
	0x0010:  c000 0211 0000 305a 00be 0083 529c 3062  ......0Z....R.0b
	0x0020:  0000 0000 8a93 0200 0000 0000 1011 1213  ................
	0x0030:  1415 1617 1819 1a1b 1c1d 1e1f 2021 2223  .............!"#
	0x0040:  2425 2627 2829 2a2b 2c2d 2e2f 3031 3233  $%&'()*+,-./0123
	0x0050:  3435 3637                                4567
14:01:55.192104 IP (tos 0x0, ttl 64, id 41920, offset 0, flags [DF], proto ICMP (1), length 84)
    192.0.2.17 > 192.0.2.24: ICMP echo request, id 190, seq 132, length 64
	0x0000:  4500 0054 a3c0 4000 4001 12bf c000 0211  E..T..@.@.......
	0x0010:  c000 0218 0800 94fe 00be 0084 539c 3062  ............S.0b
	0x0020:  0000 0000 1cee 0200 0000 0000 1011 1213  ................
	0x0030:  1415 1617 1819 1a1b 1c1d 1e1f 2021 2223  .............!"#
	0x0040:  2425 2627 2829 2a2b 2c2d 2e2f 3031 3233  $%&'()*+,-./0123
	0x0050:  3435 3637                                4567
14:01:55.192139 IP (tos 0x0, ttl 64, id 18431, offset 0, flags [none], proto ICMP (1), length 84)
    192.0.2.24 > 192.0.2.17: ICMP echo reply, id 190, seq 132, length 64
	0x0000:  4500 0054 47ff 0000 4001 ae80 c000 0218  E..TG...@.......
	0x0010:  c000 0211 0000 9cfe 00be 0084 539c 3062  ............S.0b
	0x0020:  0000 0000 1cee 0200 0000 0000 1011 1213  ................
	0x0030:  1415 1617 1819 1a1b 1c1d 1e1f 2021 2223  .............!"#
	0x0040:  2425 2627 2829 2a2b 2c2d 2e2f 3031 3233  $%&'()*+,-./0123
	0x0050:  3435 3637                                4567
14:01:56.215968 IP (tos 0x0, ttl 64, id 41925, offset 0, flags [DF], proto ICMP (1), length 84)
    192.0.2.17 > 192.0.2.24: ICMP echo request, id 190, seq 133, length 64
	0x0000:  4500 0054 a3c5 4000 4001 12ba c000 0211  E..T..@.@.......
	0x0010:  c000 0218 0800 5aa0 00be 0085 549c 3062  ......Z.....T.0b
	0x0020:  0000 0000 554b 0300 0000 0000 1011 1213  ....UK..........
	0x0030:  1415 1617 1819 1a1b 1c1d 1e1f 2021 2223  .............!"#
	0x0040:  2425 2627 2829 2a2b 2c2d 2e2f 3031 3233  $%&'()*+,-./0123
	0x0050:  3435 3637                                4567
14:01:56.216003 IP (tos 0x0, ttl 64, id 18516, offset 0, flags [none], proto ICMP (1), length 84)
    192.0.2.24 > 192.0.2.17: ICMP echo reply, id 190, seq 133, length 64
	0x0000:  4500 0054 4854 0000 4001 ae2b c000 0218  E..THT..@..+....
	0x0010:  c000 0211 0000 62a0 00be 0085 549c 3062  ......b.....T.0b
	0x0020:  0000 0000 554b 0300 0000 0000 1011 1213  ....UK..........
	0x0030:  1415 1617 1819 1a1b 1c1d 1e1f 2021 2223  .............!"#
	0x0040:  2425 2627 2829 2a2b 2c2d 2e2f 3031 3233  $%&'()*+,-./0123
	0x0050:  3435 3637                                4567
14:01:57.239981 IP (tos 0x0, ttl 64, id 42078, offset 0, flags [DF], proto ICMP (1), length 84)
    192.0.2.17 > 192.0.2.24: ICMP echo request, id 190, seq 134, length 64
	0x0000:  4500 0054 a45e 4000 4001 1221 c000 0211  E..T.^@.@..!....
	0x0010:  c000 0218 0800 8c41 00be 0086 559c 3062  .......A....U.0b
	0x0020:  0000 0000 22a9 0300 0000 0000 1011 1213  ...."...........
	0x0030:  1415 1617 1819 1a1b 1c1d 1e1f 2021 2223  .............!"#
	0x0040:  2425 2627 2829 2a2b 2c2d 2e2f 3031 3233  $%&'()*+,-./0123
	0x0050:  3435 3637                                4567
14:01:57.240015 IP (tos 0x0, ttl 64, id 18680, offset 0, flags [none], proto ICMP (1), length 84)
    192.0.2.24 > 192.0.2.17: ICMP echo reply, id 190, seq 134, length 64
	0x0000:  4500 0054 48f8 0000 4001 ad87 c000 0218  E..TH...@.......
	0x0010:  c000 0211 0000 9441 00be 0086 559c 3062  .......A....U.0b
	0x0020:  0000 0000 22a9 0300 0000 0000 1011 1213  ...."...........
	0x0030:  1415 1617 1819 1a1b 1c1d 1e1f 2021 2223  .............!"#
	0x0040:  2425 2627 2829 2a2b 2c2d 2e2f 3031 3233  $%&'()*+,-./0123
	0x0050:  3435 3637                                4567
14:01:58.263677 IP (tos 0x0, ttl 64, id 42102, offset 0, flags [DF], proto ICMP (1), length 84)
    192.0.2.17 > 192.0.2.24: ICMP echo request, id 190, seq 135, length 64
	0x0000:  4500 0054 a476 4000 4001 1209 c000 0211  E..T.v@.@.......
	0x0010:  c000 0218 0800 f5e3 00be 0087 569c 3062  ............V.0b
	0x0020:  0000 0000 b705 0400 0000 0000 1011 1213  ................
	0x0030:  1415 1617 1819 1a1b 1c1d 1e1f 2021 2223  .............!"#
	0x0040:  2425 2627 2829 2a2b 2c2d 2e2f 3031 3233  $%&'()*+,-./0123
	0x0050:  3435 3637                                4567
14:01:58.263708 IP (tos 0x0, ttl 64, id 18734, offset 0, flags [none], proto ICMP (1), length 84)
    192.0.2.24 > 192.0.2.17: ICMP echo reply, id 190, seq 135, length 64
	0x0000:  4500 0054 492e 0000 4001 ad51 c000 0218  E..TI...@..Q....
	0x0010:  c000 0211 0000 fde3 00be 0087 569c 3062  ............V.0b
	0x0020:  0000 0000 b705 0400 0000 0000 1011 1213  ................
	0x0030:  1415 1617 1819 1a1b 1c1d 1e1f 2021 2223  .............!"#
	0x0040:  2425 2627 2829 2a2b 2c2d 2e2f 3031 3233  $%&'()*+,-./0123
	0x0050:  3435 3637                                4567
14:01:59.287812 IP (tos 0x0, ttl 64, id 42146, offset 0, flags [DF], proto ICMP (1), length 84)
    192.0.2.17 > 192.0.2.24: ICMP echo request, id 190, seq 136, length 64
	0x0000:  4500 0054 a4a2 4000 4001 11dd c000 0211  E..T..@.@.......
	0x0010:  c000 0218 0800 b384 00be 0088 579c 3062  ............W.0b
