13:57:25.016378 IP (tos 0x0, ttl 64, id 55099, offset 0, flags [DF], proto ICMP (1), length 84)
    192.0.2.24 > 192.0.2.17: ICMP echo request, id 666, seq 183, length 64
	0x0000:  4500 0054 d73b 4000 4001 df43 c000 0218  E..T.;@.@..C....
	0x0010:  c000 0211 0800 029f 029a 00b7 459b 3062  ............E.0b
	0x0020:  0000 0000 bd3f 0000 0000 0000 1011 1213  .....?..........
	0x0030:  1415 1617 1819 1a1b 1c1d 1e1f 2021 2223  .............!"#
	0x0040:  2425 2627 2829 2a2b 2c2d 2e2f 3031 3233  $%&'()*+,-./0123
	0x0050:  3435 3637                                4567
13:57:25.016425 IP (tos 0x0, ttl 64, id 8800, offset 0, flags [none], proto ICMP (1), length 84)
    192.0.2.17 > 192.0.2.24: ICMP echo reply, id 666, seq 183, length 64
	0x0000:  4500 0054 2260 0000 4001 d41f c000 0211  E..T"`..@.......
	0x0010:  c000 0218 0000 0a9f 029a 00b7 459b 3062  ............E.0b
	0x0020:  0000 0000 bd3f 0000 0000 0000 1011 1213  .....?..........
	0x0030:  1415 1617 1819 1a1b 1c1d 1e1f 2021 2223  .............!"#
	0x0040:  2425 2627 2829 2a2b 2c2d 2e2f 3031 3233  $%&'()*+,-./0123
	0x0050:  3435 3637                                4567
13:57:26.040448 IP (tos 0x0, ttl 64, id 55335, offset 0, flags [DF], proto ICMP (1), length 84)
    192.0.2.24 > 192.0.2.17: ICMP echo request, id 666, seq 184, length 64
	0x0000:  4500 0054 d827 4000 4001 de57 c000 0218  E..T.'@.@..W....
	0x0010:  c000 0211 0800 fb3f 029a 00b8 469b 3062  .......?....F.0b
	0x0020:  0000 0000 c39d 0000 0000 0000 1011 1213  ................
	0x0030:  1415 1617 1819 1a1b 1c1d 1e1f 2021 2223  .............!"#
	0x0040:  2425 2627 2829 2a2b 2c2d 2e2f 3031 3233  $%&'()*+,-./0123
	0x0050:  3435 3637                                4567
13:57:26.040494 IP (tos 0x0, ttl 64, id 8884, offset 0, flags [none], proto ICMP (1), length 84)
    192.0.2.17 > 192.0.2.24: ICMP echo reply, id 666, seq 184, length 64
	0x0000:  4500 0054 22b4 0000 4001 d3cb c000 0211  E..T"...@.......
	0x0010:  c000 0218 0000 0340 029a 00b8 469b 3062  .......@....F.0b
	0x0020:  0000 0000 c39d 0000 0000 0000 1011 1213  ................
	0x0030:  1415 1617 1819 1a1b 1c1d 1e1f 2021 2223  .............!"#
	0x0040:  2425 2627 2829 2a2b 2c2d 2e2f 3031 3233  $%&'()*+,-./0123
	0x0050:  3435 3637                                4567
13:57:27.064249 IP (tos 0x0, ttl 64, id 55531, offset 0, flags [DF], proto ICMP (1), length 84)
    192.0.2.24 > 192.0.2.17: ICMP echo request, id 666, seq 185, length 64
	0x0000:  4500 0054 d8eb 4000 4001 dd93 c000 0218  E..T..@.@.......
	0x0010:  c000 0211 0800 00e2 029a 00b9 479b 3062  ............G.0b
	0x0020:  0000 0000 bcfa 0000 0000 0000 1011 1213  ................
	0x0030:  1415 1617 1819 1a1b 1c1d 1e1f 2021 2223  .............!"#
	0x0040:  2425 2627 2829 2a2b 2c2d 2e2f 3031 3233  $%&'()*+,-./0123
	0x0050:  3435 3637                                4567
13:57:27.064295 IP (tos 0x0, ttl 64, id 9043, offset 0, flags [none], proto ICMP (1), length 84)
    192.0.2.17 > 192.0.2.24: ICMP echo reply, id 666, seq 185, length 64
	0x0000:  4500 0054 2353 0000 4001 d32c c000 0211  E..T#S..@..,....
	0x0010:  c000 0218 0000 08e2 029a 00b9 479b 3062  ............G.0b
	0x0020:  0000 0000 bcfa 0000 0000 0000 1011 1213  ................
	0x0030:  1415 1617 1819 1a1b 1c1d 1e1f 2021 2223  .............!"#
	0x0040:  2425 2627 2829 2a2b 2c2d 2e2f 3031 3233  $%&'()*+,-./0123
	0x0050:  3435 3637                                4567
13:57:28.089204 IP (tos 0x0, ttl 64, id 55569, offset 0, flags [DF], proto ICMP (1), length 84)
    192.0.2.24 > 192.0.2.17: ICMP echo request, id 666, seq 186, length 64
	0x0000:  4500 0054 d911 4000 4001 dd6d c000 0218  E..T..@.@..m....
	0x0010:  c000 0211 0800 877f 029a 00ba 489b 3062  ............H.0b
	0x0020:  0000 0000 345c 0100 0000 0000 1011 1213  ....4\..........
	0x0030:  1415 1617 1819 1a1b 1c1d 1e1f 2021 2223  .............!"#
	0x0040:  2425 2627 2829 2a2b 2c2d 2e2f 3031 3233  $%&'()*+,-./0123
	0x0050:  3435 3637                                4567
13:57:28.089251 IP (tos 0x0, ttl 64, id 9119, offset 0, flags [none], proto ICMP (1), length 84)
    192.0.2.17 > 192.0.2.24: ICMP echo reply, id 666, seq 186, length 64
	0x0000:  4500 0054 239f 0000 4001 d2e0 c000 0211  E..T#...@.......
	0x0010:  c000 0218 0000 8f7f 029a 00ba 489b 3062  ............H.0b
	0x0020:  0000 0000 345c 0100 0000 0000 1011 1213  ....4\..........
	0x0030:  1415 1617 1819 1a1b 1c1d 1e1f 2021 2223  .............!"#
	0x0040:  2425 2627 2829 2a2b 2c2d 2e2f 3031 3233  $%&'()*+,-./0123
	0x0050:  3435 3637                                4567
13:57:29.111714 IP (tos 0x0, ttl 64, id 55818, offset 0, flags [DF], proto ICMP (1), length 84)
    192.0.2.24 > 192.0.2.17: ICMP echo request, id 666, seq 187, length 64
	0x0000:  4500 0054 da0a 4000 4001 dc74 c000 0218  E..T..@.@..t....
	0x0010:  c000 0211 0800 8e26 029a 00bb 499b 3062  .......&....I.0b
	0x0020:  0000 0000 2cb4 0100 0000 0000 1011 1213  ....,...........
	0x0030:  1415 1617 1819 1a1b 1c1d 1e1f 2021 2223  .............!"#
	0x0040:  2425 2627 2829 2a2b 2c2d 2e2f 3031 3233  $%&'()*+,-./0123
	0x0050:  3435 3637                                4567
13:57:29.111762 IP (tos 0x0, ttl 64, id 9319, offset 0, flags [none], proto ICMP (1), length 84)
    192.0.2.17 > 192.0.2.24: ICMP echo reply, id 666, seq 187, length 64
	0x0000:  4500 0054 2467 0000 4001 d218 c000 0211  E..T$g..@.......
	0x0010:  c000 0218 0000 9626 029a 00bb 499b 3062  .......&....I.0b
	0x0020:  0000 0000 2cb4 0100 0000 0000 1011 1213  ....,...........
	0x0030:  1415 1617 1819 1a1b 1c1d 1e1f 2021 2223  .............!"#
	0x0040:  2425 2627 2829 2a2b 2c2d 2e2f 3031 3233  $%&'()*+,-./0123
	0x0050:  3435 3637                                4567
13:57:30.135697 IP (tos 0x0, ttl 64, id 55860, offset 0, flags [DF], proto ICMP (1), length 84)
    192.0.2.24 > 192.0.2.17: ICMP echo request, id 666, seq 188, length 64
	0x0000:  4500 0054 da34 4000 4001 dc4a c000 0218  E..T.4@.@..J....
	0x0010:  c000 0211 0800 c1c7 029a 00bc 4a9b 3062  ............J.0b
	0x0020:  0000 0000 f711 0200 0000 0000 1011 1213  ................
	0x0030:  1415 1617 1819 1a1b 1c1d 1e1f 2021 2223  .............!"#
	0x0040:  2425 2627 2829 2a2b 2c2d 2e2f 3031 3233  $%&'()*+,-./0123
	0x0050:  3435 3637                                4567
13:57:30.135719 IP (tos 0x0, ttl 64, id 9485, offset 0, flags [none], proto ICMP (1), length 84)
    192.0.2.17 > 192.0.2.24: ICMP echo reply, id 666, seq 188, length 64
	0x0000:  4500 0054 250d 0000 4001 d172 c000 0211  E..T%...@..r....
	0x0010:  c000 0218 0000 c9c7 029a 00bc 4a9b 3062  ............J.0b
	0x0020:  0000 0000 f711 0200 0000 0000 1011 1213  ................
	0x0030:  1415 1617 1819 1a1b 1c1d 1e1f 2021 2223  .............!"#
	0x0040:  2425 2627 2829 2a2b 2c2d 2e2f 3031 3233  $%&'()*+,-./0123
	0x0050:  3435 3637                                4567
13:57:31.164445 IP (tos 0x0, ttl 64, id 55919, offset 0, flags [DF], proto ICMP (1), length 84)
    192.0.2.24 > 192.0.2.17: ICMP echo request, id 666, seq 189, length 64
	0x0000:  4500 0054 da6f 4000 4001 dc0f c000 0218  E..T.o@.@.......
	0x0010:  c000 0211 0800 7a56 029a 00bd 4b9b 3062  ......zV....K.0b
	0x0020:  0000 0000 3d82 0200 0000 0000 1011 1213  ....=...........
	0x0030:  1415 1617 1819 1a1b 1c1d 1e1f 2021 2223  .............!"#
	0x0040:  2425 2627 2829 2a2b 2c2d 2e2f 3031 3233  $%&'()*+,-./0123
	0x0050:  3435 3637                                4567
13:57:31.164470 IP (tos 0x0, ttl 64, id 9686, offset 0, flags [none], proto ICMP (1), length 84)
    192.0.2.17 > 192.0.2.24: ICMP echo reply, id 666, seq 189, length 64
	0x0000:  4500 0054 25d6 0000 4001 d0a9 c000 0211  E..T%...@.......
	0x0010:  c000 0218 0000 8256 029a 00bd 4b9b 3062  .......V....K.0b
	0x0020:  0000 0000 3d82 0200 0000 0000 1011 1213  ....=...........
	0x0030:  1415 1617 1819 1a1b 1c1d 1e1f 2021 2223  .............!"#
	0x0040:  2425 2627 2829 2a2b 2c2d 2e2f 3031 3233  $%&'()*+,-./0123
	0x0050:  3435 3637                                4567
13:57:32.183841 IP (tos 0x0, ttl 64, id 56010, offset 0, flags [DF], proto ICMP (1), length 84)
    192.0.2.24 > 192.0.2.17: ICMP echo request, id 666, seq 190, length 64
	0x0000:  4500 0054 daca 4000 4001 dbb4 c000 0218  E..T..@.@.......
	0x0010:  c000 0211 0800 ce09 029a 00be 4c9b 3062  ............L.0b
	0x0020:  0000 0000 e8cd 0200 0000 0000 1011 1213  ................
	0x0030:  1415 1617 1819 1a1b 1c1d 1e1f 2021 2223  .............!"#
	0x0040:  2425 2627 2829 2a2b 2c2d 2e2f 3031 3233  $%&'()*+,-./0123
	0x0050:  3435 3637                                4567
13:57:32.183884 IP (tos 0x0, ttl 64, id 9889, offset 0, flags [none], proto ICMP (1), length 84)
    192.0.2.17 > 192.0.2.24: ICMP echo reply, id 666, seq 190, length 64
	0x0000:  4500 0054 26a1 0000 4001 cfde c000 0211  E..T&...@.......
	0x0010:  c000 0218 0000 d609 029a 00be 4c9b 3062  ............L.0b
	0x0020:  0000 0000 e8cd 0200 0000 0000 1011 1213  ................
	0x0030:  1415 1617 1819 1a1b 1c1d 1e1f 2021 2223  .............!"#
	0x0040:  2425 2627 2829 2a2b 2c2d 2e2f 3031 3233  $%&'()*+,-./0123
	0x0050:  3435 3637                                4567
13:57:33.208464 IP (tos 0x0, ttl 64, id 56052, offset 0, flags [DF], proto ICMP (1), length 84)
    192.0.2.24 > 192.0.2.17: ICMP echo request, id 666, seq 191, length 64
	0x0000:  4500 0054 daf4 4000 4001 db8a c000 0218  E..T..@.@.......
	0x0010:  c000 0211 0800 a1a8 029a 00bf 4d9b 3062  ............M.0b
	0x0020:  0000 0000 132e 0300 0000 0000 1011 1213  ................
	0x0030:  1415 1617 1819 1a1b 1c1d 1e1f 2021 2223  .............!"#
	0x0040:  2425 2627 2829 2a2b 2c2d 2e2f 3031 3233  $%&'()*+,-./0123
	0x0050:  3435 3637                                4567
13:57:33.208511 IP (tos 0x0, ttl 64, id 10059, offset 0, flags [none], proto ICMP (1), length 84)
    192.0.2.17 > 192.0.2.24: ICMP echo reply, id 666, seq 191, length 64
	0x0000:  4500 0054 274b 0000 4001 cf34 c000 0211  E..T'K..@..4....
	0x0010:  c000 0218 0000 a9a8 029a 00bf 4d9b 3062  ............M.0b
	0x0020:  0000 0000 132e 0300 0000 0000 1011 1213  ................
	0x0030:  1415 1617 1819 1a1b 1c1d 1e1f 2021 2223  .............!"#
	0x0040:  2425 2627 2829 2a2b 2c2d 2e2f 3031 3233  $%&'()*+,-./0123
	0x0050:  3435 3637                                4567
13:57:34.232051 IP (tos 0x0, ttl 64, id 56182, offset 0, flags [DF], proto ICMP (1), length 84)
    192.0.2.24 > 192.0.2.17: ICMP echo request, id 666, seq 192, length 64
	0x0000:  4500 0054 db76 4000 4001 db08 c000 0218  E..T.v@.@.......
	0x0010:  c000 0211 0800 7c4b 029a 00c0 4e9b 3062  ......|K....N.0b
	0x0020:  0000 0000 378a 0300 0000 0000 1011 1213  ....7...........
	0x0030:  1415 1617 1819 1a1b 1c1d 1e1f 2021 2223  .............!"#
	0x0040:  2425 2627 2829 2a2b 2c2d 2e2f 3031 3233  $%&'()*+,-./0123
	0x0050:  3435 3637                                4567
13:57:34.232097 IP (tos 0x0, ttl 64, id 10079, offset 0, flags [none], proto ICMP (1), length 84)
    192.0.2.17 > 192.0.2.24: ICMP echo reply, id 666, seq 192, length 64
	0x0000:  4500 0054 275f 0000 4001 cf20 c000 0211  E..T'_..@.......
	0x0010:  c000 0218 0000 844b 029a 00c0 4e9b 3062  .......K....N.0b
	0x0020:  0000 0000 378a 0300 0000 0000 1011 1213  ....7...........
	0x0030:  1415 1617 1819 1a1b 1c1d 1e1f 2021 2223  .............!"#
	0x0040:  2425 2627 2829 2a2b 2c2d 2e2f 3031 3233  $%&'()*+,-./0123
	0x0050:  3435 3637                                4567
13:57:35.255738 IP (tos 0x0, ttl 64, id 56215, offset 0, flags [DF], proto ICMP (1), length 84)
    192.0.2.24 > 192.0.2.17: ICMP echo request, id 666, seq 193, length 64
	0x0000:  4500 0054 db97 4000 4001 dae7 c000 0218  E..T..@.@.......
	0x0010:  c000 0211 0800 13ee 029a 00c1 4f9b 3062  ............O.0b
	0x0020:  0000 0000 9ee6 0300 0000 0000 1011 1213  ................
	0x0030:  1415 1617 1819 1a1b 1c1d 1e1f 2021 2223  .............!"#
	0x0040:  2425 2627 2829 2a2b 2c2d 2e2f 3031 3233  $%&'()*+,-./0123
	0x0050:  3435 3637                                4567
13:57:35.255790 IP (tos 0x0, ttl 64, id 10200, offset 0, flags [none], proto ICMP (1), length 84)
    192.0.2.17 > 192.0.2.24: ICMP echo reply, id 666, seq 193, length 64
	0x0000:  4500 0054 27d8 0000 4001 cea7 c000 0211  E..T'...@.......
	0x0010:  c000 0218 0000 1bee 029a 00c1 4f9b 3062  ............O.0b
	0x0020:  0000 0000 9ee6 0300 0000 0000 1011 1213  ................
	0x0030:  1415 1617 1819 1a1b 1c1d 1e1f 2021 2223  .............!"#
	0x0040:  2425 2627 2829 2a2b 2c2d 2e2f 3031 3233  $%&'()*+,-./0123
	0x0050:  3435 3637                                4567
13:57:36.280106 IP (tos 0x0, ttl 64, id 56315, offset 0, flags [DF], proto ICMP (1), length 84)
    192.0.2.24 > 192.0.2.17: ICMP echo request, id 666, seq 194, length 64
	0x0000:  4500 0054 dbfb 4000 4001 da83 c000 0218  E..T..@.@.......
	0x0010:  c000 0211 0800 d38d 029a 00c2 509b 3062  ............P.0b
	0x0020:  0000 0000 dd45 0400 0000 0000 1011 1213  .....E..........
	0x0030:  1415 1617 1819 1a1b 1c1d 1e1f 2021 2223  .............!"#
	0x0040:  2425 2627 2829 2a2b 2c2d 2e2f 3031 3233  $%&'()*+,-./0123
	0x0050:  3435 3637                                4567
13:57:36.280168 IP (tos 0x0, ttl 64, id 10265, offset 0, flags [none], proto ICMP (1), length 84)
    192.0.2.17 > 192.0.2.24: ICMP echo reply, id 666, seq 194, length 64
	0x0000:  4500 0054 2819 0000 4001 ce66 c000 0211  E..T(...@..f....
	0x0010:  c000 0218 0000 db8d 029a 00c2 509b 3062  ............P.0b
	0x0020:  0000 0000 dd45 0400 0000 0000 1011 1213  .....E..........
	0x0030:  1415 1617 1819 1a1b 1c1d 1e1f 2021 2223  .............!"#
	0x0040:  2425 2627 2829 2a2b 2c2d 2e2f 3031 3233  $%&'()*+,-./0123
	0x0050:  3435 3637                                4567
13:57:37.304368 IP (tos 0x0, ttl 64, id 56500, offset 0, flags [DF], proto ICMP (1), length 84)
    192.0.2.24 > 192.0.2.17: ICMP echo request, id 666, seq 195, length 64
	0x0000:  4500 0054 dcb4 4000 4001 d9ca c000 0218  E..T..@.@.......
	0x0010:  c000 0211 0800 fc2d 029a 00c3 519b 3062  .......-....Q.0b
	0x0020:  0000 0000 b3a4 0400 0000 0000 1011 1213  ................
	0x0030:  1415 1617 1819 1a1b 1c1d 1e1f 2021 2223  .............!"#
	0x0040:  2425 2627 2829 2a2b 2c2d 2e2f 3031 3233  $%&'()*+,-./0123
	0x0050:  3435 3637                                4567
13:57:37.304413 IP (tos 0x0, ttl 64, id 10514, offset 0, flags [none], proto ICMP (1), length 84)
    192.0.2.17 > 192.0.2.24: ICMP echo reply, id 666, seq 195, length 64
	0x0000:  4500 0054 2912 0000 4001 cd6d c000 0211  E..T)...@..m....
	0x0010:  c000 0218 0000 042e 029a 00c3 519b 3062  ............Q.0b
	0x0020:  0000 0000 b3a4 0400 0000 0000 1011 1213  ................
	0x0030:  1415 1617 1819 1a1b 1c1d 1e1f 2021 2223  .............!"#
	0x0040:  2425 2627 2829 2a2b 2c2d 2e2f 3031 3233  $%&'()*+,-./0123
	0x0050:  3435 3637                                4567
13:57:38.328843 IP (tos 0x0, ttl 64, id 56533, offset 0, flags [DF], proto ICMP (1), length 84)
    192.0.2.24 > 192.0.2.17: ICMP echo request, id 666, seq 196, length 64
	0x0000:  4500 0054 dcd5 4000 4001 d9a9 c000 0218  E..T..@.@.......
	0x0010:  c000 0211 0800 62cd 029a 00c4 529b 3062  ......b.....R.0b
	0x0020:  0000 0000 4b04 0500 0000 0000 1011 1213  ....K...........
	0x0030:  1415 1617 1819 1a1b 1c1d 1e1f 2021 2223  .............!"#
	0x0040:  2425 2627 2829 2a2b 2c2d 2e2f 3031 3233  $%&'()*+,-./0123
	0x0050:  3435 3637                                4567
13:57:38.328892 IP (tos 0x0, ttl 64, id 10517, offset 0, flags [none], proto ICMP (1), length 84)
    192.0.2.17 > 192.0.2.24: ICMP echo reply, id 666, seq 196, length 64
	0x0000:  4500 0054 2915 0000 4001 cd6a c000 0211  E..T)...@..j....
	0x0010:  c000 0218 0000 6acd 029a 00c4 529b 3062  ......j.....R.0b
	0x0020:  0000 0000 4b04 0500 0000 0000 1011 1213  ....K...........
	0x0030:  1415 1617 1819 1a1b 1c1d 1e1f 2021 2223  .............!"#
	0x0040:  2425 2627 2829 2a2b 2c2d 2e2f 3031 3233  $%&'()*+,-./0123
	0x0050:  3435 3637                                4567
13:57:39.352476 IP (tos 0x0, ttl 64, id 56610, offset 0, flags [DF], proto ICMP (1), length 84)
    192.0.2.24 > 192.0.2.17: ICMP echo request, id 666, seq 197, length 64
	0x0000:  4500 0054 dd22 4000 4001 d95c c000 0218  E..T."@.@..\....
	0x0010:  c000 0211 0800 0d70 029a 00c5 539b 3062  .......p....S.0b
	0x0020:  0000 0000 9f60 0500 0000 0000 1011 1213  .....`..........
	0x0030:  1415 1617 1819 1a1b 1c1d 1e1f 2021 2223  .............!"#
	0x0040:  2425 2627 2829 2a2b 2c2d 2e2f 3031 3233  $%&'()*+,-./0123
	0x0050:  3435 3637                                4567
13:57:39.352521 IP (tos 0x0, ttl 64, id 10548, offset 0, flags [none], proto ICMP (1), length 84)
    192.0.2.17 > 192.0.2.24: ICMP echo reply, id 666, seq 197, length 64
	0x0000:  4500 0054 2934 0000 4001 cd4b c000 0211  E..T)4..@..K....
	0x0010:  c000 0218 0000 1570 029a 00c5 539b 3062  .......p....S.0b
	0x0020:  0000 0000 9f60 0500 0000 0000 1011 1213  .....`..........
	0x0030:  1415 1617 1819 1a1b 1c1d 1e1f 2021 2223  .............!"#
	0x0040:  2425 2627 2829 2a2b 2c2d 2e2f 3031 3233  $%&'()*+,-./0123
	0x0050:  3435 3637                                4567
13:57:40.376459 IP (tos 0x0, ttl 64, id 56611, offset 0, flags [DF], proto ICMP (1), length 84)
    192.0.2.24 > 192.0.2.17: ICMP echo request, id 666, seq 198, length 64
	0x0000:  4500 0054 dd23 4000 4001 d95b c000 0218  E..T.#@.@..[....
	0x0010:  c000 0211 0800 3c11 029a 00c6 549b 3062  ......<.....T.0b
	0x0020:  0000 0000 6fbe 0500 0000 0000 1011 1213  ....o...........
	0x0030:  1415 1617 1819 1a1b 1c1d 1e1f 2021 2223  .............!"#
	0x0040:  2425 2627 2829 2a2b 2c2d 2e2f 3031 3233  $%&'()*+,-./0123
	0x0050:  3435 3637                                4567
13:57:40.376481 IP (tos 0x0, ttl 64, id 10662, offset 0, flags [none], proto ICMP (1), length 84)
    192.0.2.17 > 192.0.2.24: ICMP echo reply, id 666, seq 198, length 64
	0x0000:  4500 0054 29a6 0000 4001 ccd9 c000 0211  E..T)...@.......
	0x0010:  c000 0218 0000 4411 029a 00c6 549b 3062  ......D.....T.0b
	0x0020:  0000 0000 6fbe 0500 0000 0000 1011 1213  ....o...........
	0x0030:  1415 1617 1819 1a1b 1c1d 1e1f 2021 2223  .............!"#
	0x0040:  2425 2627 2829 2a2b 2c2d 2e2f 3031 3233  $%&'()*+,-./0123
	0x0050:  3435 3637                                4567
13:57:41.403630 IP (tos 0x0, ttl 64, id 56620, offset 0, flags [DF], proto ICMP (1), length 84)
    192.0.2.24 > 192.0.2.17: ICMP echo request, id 666, seq 199, length 64
	0x0000:  4500 0054 dd2c 4000 4001 d952 c000 0218  E..T.,@.@..R....
	0x0010:  c000 0211 0800 18a6 029a 00c7 559b 3062  ............U.0b
	0x0020:  0000 0000 9128 0600 0000 0000 1011 1213  .....(..........
	0x0030:  1415 1617 1819 1a1b 1c1d 1e1f 2021 2223  .............!"#
	0x0040:  2425 2627 2829 2a2b 2c2d 2e2f 3031 3233  $%&'()*+,-./0123
	0x0050:  3435 3637                                4567
13:57:41.403650 IP (tos 0x0, ttl 64, id 10890, offset 0, flags [none], proto ICMP (1), length 84)
    192.0.2.17 > 192.0.2.24: ICMP echo reply, id 666, seq 199, length 64
	0x0000:  4500 0054 2a8a 0000 4001 cbf5 c000 0211  E..T*...@.......
	0x0010:  c000 0218 0000 20a6 029a 00c7 559b 3062  ............U.0b
	0x0020:  0000 0000 9128 0600 0000 0000 1011 1213  .....(..........
	0x0030:  1415 1617 1819 1a1b 1c1d 1e1f 2021 2223  .............!"#
	0x0040:  2425 2627 2829 2a2b 2c2d 2e2f 3031 3233  $%&'()*+,-./0123
	0x0050:  3435 3637                                4567
13:57:42.425056 IP (tos 0x0, ttl 64, id 56772, offset 0, flags [DF], proto ICMP (1), length 84)
    192.0.2.24 > 192.0.2.17: ICMP echo request, id 666, seq 200, length 64
	0x0000:  4500 0054 ddc4 4000 4001 d8ba c000 0218  E..T..@.@.......
	0x0010:  c000 0211 0800 8251 029a 00c8 569b 3062  .......Q....V.0b
	0x0020:  0000 0000 267c 0600 0000 0000 1011 1213  ....&|..........
	0x0030:  1415 1617 1819 1a1b 1c1d 1e1f 2021 2223  .............!"#
	0x0040:  2425 2627 2829 2a2b 2c2d 2e2f 3031 3233  $%&'()*+,-./0123
	0x0050:  3435 3637                                4567
13:57:42.425099 IP (tos 0x0, ttl 64, id 11098, offset 0, flags [none], proto ICMP (1), length 84)
    192.0.2.17 > 192.0.2.24: ICMP echo reply, id 666, seq 200, length 64
	0x0000:  4500 0054 2b5a 0000 4001 cb25 c000 0211  E..T+Z..@..%....
	0x0010:  c000 0218 0000 8a51 029a 00c8 569b 3062  .......Q....V.0b
	0x0020:  0000 0000 267c 0600 0000 0000 1011 1213  ....&|..........
	0x0030:  1415 1617 1819 1a1b 1c1d 1e1f 2021 2223  .............!"#
	0x0040:  2425 2627 2829 2a2b 2c2d 2e2f 3031 3233  $%&'()*+,-./0123
	0x0050:  3435 3637                                4567
13:57:43.448611 IP (tos 0x0, ttl 64, id 56860, offset 0, flags [DF], proto ICMP (1), length 84)
    192.0.2.24 > 192.0.2.17: ICMP echo request, id 666, seq 201, length 64
	0x0000:  4500 0054 de1c 4000 4001 d862 c000 0218  E..T..@.@..b....
	0x0010:  c000 0211 0800 7ff4 029a 00c9 579b 3062  ............W.0b
	0x0020:  0000 0000 27d8 0600 0000 0000 1011 1213  ....'...........
	0x0030:  1415 1617 1819 1a1b 1c1d 1e1f 2021 2223  .............!"#
	0x0040:  2425 2627 2829 2a2b 2c2d 2e2f 3031 3233  $%&'()*+,-./0123
	0x0050:  3435 3637                                4567
13:57:43.448657 IP (tos 0x0, ttl 64, id 11335, offset 0, flags [none], proto ICMP (1), length 84)
    192.0.2.17 > 192.0.2.24: ICMP echo reply, id 666, seq 201, length 64
	0x0000:  4500 0054 2c47 0000 4001 ca38 c000 0211  E..T,G..@..8....
	0x0010:  c000 0218 0000 87f4 029a 00c9 579b 3062  ............W.0b
	0x0020:  0000 0000 27d8 0600 0000 0000 1011 1213  ....'...........
	0x0030:  1415 1617 1819 1a1b 1c1d 1e1f 2021 2223  .............!"#
	0x0040:  2425 2627 2829 2a2b 2c2d 2e2f 3031 3233  $%&'()*+,-./0123
	0x0050:  3435 3637                                4567
13:57:44.473834 IP (tos 0x0, ttl 64, id 56996, offset 0, flags [DF], proto ICMP (1), length 84)
    192.0.2.24 > 192.0.2.17: ICMP echo request, id 666, seq 202, length 64
	0x0000:  4500 0054 dea4 4000 4001 d7da c000 0218  E..T..@.@.......
	0x0010:  c000 0211 0800 f990 029a 00ca 589b 3062  ............X.0b
	0x0020:  0000 0000 ac3a 0700 0000 0000 1011 1213  .....:..........
	0x0030:  1415 1617 1819 1a1b 1c1d 1e1f 2021 2223  .............!"#
	0x0040:  2425 2627 2829 2a2b 2c2d 2e2f 3031 3233  $%&'()*+,-./0123
	0x0050:  3435 3637                                4567
13:57:44.473881 IP (tos 0x0, ttl 64, id 11385, offset 0, flags [none], proto ICMP (1), length 84)
    192.0.2.17 > 192.0.2.24: ICMP echo reply, id 666, seq 202, length 64
	0x0000:  4500 0054 2c79 0000 4001 ca06 c000 0211  E..T,y..@.......
	0x0010:  c000 0218 0000 0191 029a 00ca 589b 3062  ............X.0b
	0x0020:  0000 0000 ac3a 0700 0000 0000 1011 1213  .....:..........
	0x0030:  1415 1617 1819 1a1b 1c1d 1e1f 2021 2223  .............!"#
	0x0040:  2425 2627 2829 2a2b 2c2d 2e2f 3031 3233  $%&'()*+,-./0123
	0x0050:  3435 3637                                4567
13:57:45.496330 IP (tos 0x0, ttl 64, id 57183, offset 0, flags [DF], proto ICMP (1), length 84)
    192.0.2.24 > 192.0.2.17: ICMP echo request, id 666, seq 203, length 64
	0x0000:  4500 0054 df5f 4000 4001 d71f c000 0218  E..T._@.@.......
	0x0010:  c000 0211 0800 1638 029a 00cb 599b 3062  .......8....Y.0b
	0x0020:  0000 0000 8e92 0700 0000 0000 1011 1213  ................
	0x0030:  1415 1617 1819 1a1b 1c1d 1e1f 2021 2223  .............!"#
	0x0040:  2425 2627 2829 2a2b 2c2d 2e2f 3031 3233  $%&'()*+,-./0123
	0x0050:  3435 3637                                4567
13:57:45.496377 IP (tos 0x0, ttl 64, id 11402, offset 0, flags [none], proto ICMP (1), length 84)
    192.0.2.17 > 192.0.2.24: ICMP echo reply, id 666, seq 203, length 64
	0x0000:  4500 0054 2c8a 0000 4001 c9f5 c000 0211  E..T,...@.......
	0x0010:  c000 0218 0000 1e38 029a 00cb 599b 3062  .......8....Y.0b
	0x0020:  0000 0000 8e92 0700 0000 0000 1011 1213  ................
	0x0030:  1415 1617 1819 1a1b 1c1d 1e1f 2021 2223  .............!"#
	0x0040:  2425 2627 2829 2a2b 2c2d 2e2f 3031 3233  $%&'()*+,-./0123
	0x0050:  3435 3637                                4567
13:57:46.519959 IP (tos 0x0, ttl 64, id 57433, offset 0, flags [DF], proto ICMP (1), length 84)
    192.0.2.24 > 192.0.2.17: ICMP echo request, id 666, seq 204, length 64
	0x0000:  4500 0054 e059 4000 4001 d625 c000 0218  E..T.Y@.@..%....
	0x0010:  c000 0211 0800 c8da 029a 00cc 5a9b 3062  ............Z.0b
	0x0020:  0000 0000 daee 0700 0000 0000 1011 1213  ................
	0x0030:  1415 1617 1819 1a1b 1c1d 1e1f 2021 2223  .............!"#
	0x0040:  2425 2627 2829 2a2b 2c2d 2e2f 3031 3233  $%&'()*+,-./0123
	0x0050:  3435 3637                                4567
13:57:46.520005 IP (tos 0x0, ttl 64, id 11456, offset 0, flags [none], proto ICMP (1), length 84)
    192.0.2.17 > 192.0.2.24: ICMP echo reply, id 666, seq 204, length 64
	0x0000:  4500 0054 2cc0 0000 4001 c9bf c000 0211  E..T,...@.......
	0x0010:  c000 0218 0000 d0da 029a 00cc 5a9b 3062  ............Z.0b
	0x0020:  0000 0000 daee 0700 0000 0000 1011 1213  ................
	0x0030:  1415 1617 1819 1a1b 1c1d 1e1f 2021 2223  .............!"#
	0x0040:  2425 2627 2829 2a2b 2c2d 2e2f 3031 3233  $%&'()*+,-./0123
	0x0050:  3435 3637                                4567
13:57:47.543920 IP (tos 0x0, ttl 64, id 57669, offset 0, flags [DF], proto ICMP (1), length 84)
    192.0.2.24 > 192.0.2.17: ICMP echo request, id 666, seq 205, length 64
	0x0000:  4500 0054 e145 4000 4001 d539 c000 0218  E..T.E@.@..9....
	0x0010:  c000 0211 0800 2f7c 029a 00cd 5b9b 3062  ....../|....[.0b
	0x0020:  0000 0000 724c 0800 0000 0000 1011 1213  ....rL..........
	0x0030:  1415 1617 1819 1a1b 1c1d 1e1f 2021 2223  .............!"#
	0x0040:  2425 2627 2829 2a2b 2c2d 2e2f 3031 3233  $%&'()*+,-./0123
	0x0050:  3435 3637                                4567
13:57:47.543967 IP (tos 0x0, ttl 64, id 11488, offset 0, flags [none], proto ICMP (1), length 84)
    192.0.2.17 > 192.0.2.24: ICMP echo reply, id 666, seq 205, length 64
	0x0000:  4500 0054 2ce0 0000 4001 c99f c000 0211  E..T,...@.......
	0x0010:  c000 0218 0000 377c 029a 00cd 5b9b 3062  ......7|....[.0b
	0x0020:  0000 0000 724c 0800 0000 0000 1011 1213  ....rL..........
	0x0030:  1415 1617 1819 1a1b 1c1d 1e1f 2021 2223  .............!"#
	0x0040:  2425 2627 2829 2a2b 2c2d 2e2f 3031 3233  $%&'()*+,-./0123
	0x0050:  3435 3637                                4567
13:57:48.568257 IP (tos 0x0, ttl 64, id 57788, offset 0, flags [DF], proto ICMP (1), length 84)
    192.0.2.24 > 192.0.2.17: ICMP echo request, id 666, seq 206, length 64
	0x0000:  4500 0054 e1bc 4000 4001 d4c2 c000 0218  E..T..@.@.......
	0x0010:  c000 0211 0800 1a1c 029a 00ce 5c9b 3062  ............\.0b
	0x0020:  0000 0000 86ab 0800 0000 0000 1011 1213  ................
	0x0030:  1415 1617 1819 1a1b 1c1d 1e1f 2021 2223  .............!"#
	0x0040:  2425 2627 2829 2a2b 2c2d 2e2f 3031 3233  $%&'()*+,-./0123
	0x0050:  3435 3637                                4567
13:57:48.568305 IP (tos 0x0, ttl 64, id 11687, offset 0, flags [none], proto ICMP (1), length 84)
    192.0.2.17 > 192.0.2.24: ICMP echo reply, id 666, seq 206, length 64
	0x0000:  4500 0054 2da7 0000 4001 c8d8 c000 0211  E..T-...@.......
	0x0010:  c000 0218 0000 221c 029a 00ce 5c9b 3062  ......".....\.0b
	0x0020:  0000 0000 86ab 0800 0000 0000 1011 1213  ................
	0x0030:  1415 1617 1819 1a1b 1c1d 1e1f 2021 2223  .............!"#
	0x0040:  2425 2627 2829 2a2b 2c2d 2e2f 3031 3233  $%&'()*+,-./0123
	0x0050:  3435 3637                                4567
13:57:49.592093 IP (tos 0x0, ttl 64, id 57921, offset 0, flags [DF], proto ICMP (1), length 84)
    192.0.2.24 > 192.0.2.17: ICMP echo request, id 666, seq 207, length 64
	0x0000:  4500 0054 e241 4000 4001 d43d c000 0218  E..T.A@.@..=....
	0x0010:  c000 0211 0800 02be 029a 00cf 5d9b 3062  ............].0b
	0x0020:  0000 0000 9c08 0900 0000 0000 1011 1213  ................
	0x0030:  1415 1617 1819 1a1b 1c1d 1e1f 2021 2223  .............!"#
	0x0040:  2425 2627 2829 2a2b 2c2d 2e2f 3031 3233  $%&'()*+,-./0123
	0x0050:  3435 3637                                4567
13:57:49.592142 IP (tos 0x0, ttl 64, id 11774, offset 0, flags [none], proto ICMP (1), length 84)
    192.0.2.17 > 192.0.2.24: ICMP echo reply, id 666, seq 207, length 64
	0x0000:  4500 0054 2dfe 0000 4001 c881 c000 0211  E..T-...@.......
	0x0010:  c000 0218 0000 0abe 029a 00cf 5d9b 3062  ............].0b
	0x0020:  0000 0000 9c08 0900 0000 0000 1011 1213  ................
	0x0030:  1415 1617 1819 1a1b 1c1d 1e1f 2021 2223  .............!"#
	0x0040:  2425 2627 2829 2a2b 2c2d 2e2f 3031 3233  $%&'()*+,-./0123
	0x0050:  3435 3637                                4567
13:57:50.615654 IP (tos 0x0, ttl 64, id 58098, offset 0, flags [DF], proto ICMP (1), length 84)
    192.0.2.24 > 192.0.2.17: ICMP echo request, id 666, seq 208, length 64
	0x0000:  4500 0054 e2f2 4000 4001 d38c c000 0218  E..T..@.@.......
	0x0010:  c000 0211 0800 d060 029a 00d0 5e9b 3062  .......`....^.0b
	0x0020:  0000 0000 cd64 0900 0000 0000 1011 1213  .....d..........
	0x0030:  1415 1617 1819 1a1b 1c1d 1e1f 2021 2223  .............!"#
	0x0040:  2425 2627 2829 2a2b 2c2d 2e2f 3031 3233  $%&'()*+,-./0123
	0x0050:  3435 3637                                4567
13:57:50.615673 IP (tos 0x0, ttl 64, id 11937, offset 0, flags [none], proto ICMP (1), length 84)
    192.0.2.17 > 192.0.2.24: ICMP echo reply, id 666, seq 208, length 64
	0x0000:  4500 0054 2ea1 0000 4001 c7de c000 0211  E..T....@.......
	0x0010:  c000 0218 0000 d860 029a 00d0 5e9b 3062  .......`....^.0b
	0x0020:  0000 0000 cd64 0900 0000 0000 1011 1213  .....d..........
	0x0030:  1415 1617 1819 1a1b 1c1d 1e1f 2021 2223  .............!"#
	0x0040:  2425 2627 2829 2a2b 2c2d 2e2f 3031 3233  $%&'()*+,-./0123
	0x0050:  3435 3637                                4567
13:57:51.639618 IP (tos 0x0, ttl 64, id 58279, offset 0, flags [DF], proto ICMP (1), length 84)
    192.0.2.24 > 192.0.2.17: ICMP echo request, id 666, seq 209, length 64
	0x0000:  4500 0054 e3a7 4000 4001 d2d7 c000 0218  E..T..@.@.......
	0x0010:  c000 0211 0800 3102 029a 00d1 5f9b 3062  ......1....._.0b
	0x0020:  0000 0000 6bc2 0900 0000 0000 1011 1213  ....k...........
	0x0030:  1415 1617 1819 1a1b 1c1d 1e1f 2021 2223  .............!"#
	0x0040:  2425 2627 2829 2a2b 2c2d 2e2f 3031 3233  $%&'()*+,-./0123
	0x0050:  3435 3637                                4567
13:57:51.639637 IP (tos 0x0, ttl 64, id 12008, offset 0, flags [none], proto ICMP (1), length 84)
    192.0.2.17 > 192.0.2.24: ICMP echo reply, id 666, seq 209, length 64
	0x0000:  4500 0054 2ee8 0000 4001 c797 c000 0211  E..T....@.......
	0x0010:  c000 0218 0000 3902 029a 00d1 5f9b 3062  ......9....._.0b
	0x0020:  0000 0000 6bc2 0900 0000 0000 1011 1213  ....k...........
	0x0030:  1415 1617 1819 1a1b 1c1d 1e1f 2021 2223  .............!"#
	0x0040:  2425 2627 2829 2a2b 2c2d 2e2f 3031 3233  $%&'()*+,-./0123
	0x0050:  3435 3637                                4567
13:57:52.663741 IP (tos 0x0, ttl 64, id 58488, offset 0, flags [DF], proto ICMP (1), length 84)
    192.0.2.24 > 192.0.2.17: ICMP echo request, id 666, seq 210, length 64
	0x0000:  4500 0054 e478 4000 4001 d206 c000 0218  E..T.x@.@.......
	0x0010:  c000 0211 0800 16a3 029a 00d2 609b 3062  ............`.0b
	0x0020:  0000 0000 8420 0a00 0000 0000 1011 1213  ................
	0x0030:  1415 1617 1819 1a1b 1c1d 1e1f 2021 2223  .............!"#
	0x0040:  2425 2627 2829 2a2b 2c2d 2e2f 3031 3233  $%&'()*+,-./0123
	0x0050:  3435 3637                                4567
13:57:52.663786 IP (tos 0x0, ttl 64, id 12065, offset 0, flags [none], proto ICMP (1), length 84)
    192.0.2.17 > 192.0.2.24: ICMP echo reply, id 666, seq 210, length 64
	0x0000:  4500 0054 2f21 0000 4001 c75e c000 0211  E..T/!..@..^....
	0x0010:  c000 0218 0000 1ea3 029a 00d2 609b 3062  ............`.0b
	0x0020:  0000 0000 8420 0a00 0000 0000 1011 1213  ................
	0x0030:  1415 1617 1819 1a1b 1c1d 1e1f 2021 2223  .............!"#
	0x0040:  2425 2627 2829 2a2b 2c2d 2e2f 3031 3233  $%&'()*+,-./0123
	0x0050:  3435 3637                                4567
13:57:53.688056 IP (tos 0x0, ttl 64, id 58728, offset 0, flags [DF], proto ICMP (1), length 84)
    192.0.2.24 > 192.0.2.17: ICMP echo request, id 666, seq 211, length 64
	0x0000:  4500 0054 e568 4000 4001 d116 c000 0218  E..T.h@.@.......
	0x0010:  c000 0211 0800 1d43 029a 00d3 619b 3062  .......C....a.0b
	0x0020:  0000 0000 7c7f 0a00 0000 0000 1011 1213  ....|...........
	0x0030:  1415 1617 1819 1a1b 1c1d 1e1f 2021 2223  .............!"#
	0x0040:  2425 2627 2829 2a2b 2c2d 2e2f 3031 3233  $%&'()*+,-./0123
	0x0050:  3435 3637                                4567
13:57:53.688101 IP (tos 0x0, ttl 64, id 12077, offset 0, flags [none], proto ICMP (1), length 84)
    192.0.2.17 > 192.0.2.24: ICMP echo reply, id 666, seq 211, length 64
	0x0000:  4500 0054 2f2d 0000 4001 c752 c000 0211  E..T/-..@..R....
	0x0010:  c000 0218 0000 2543 029a 00d3 619b 3062  ......%C....a.0b
	0x0020:  0000 0000 7c7f 0a00 0000 0000 1011 1213  ....|...........
	0x0030:  1415 1617 1819 1a1b 1c1d 1e1f 2021 2223  .............!"#
	0x0040:  2425 2627 2829 2a2b 2c2d 2e2f 3031 3233  $%&'()*+,-./0123
	0x0050:  3435 3637                                4567
13:57:54.712203 IP (tos 0x0, ttl 64, id 58768, offset 0, flags [DF], proto ICMP (1), length 84)
    192.0.2.24 > 192.0.2.17: ICMP echo request, id 666, seq 212, length 64
	0x0000:  4500 0054 e590 4000 4001 d0ee c000 0218  E..T..@.@.......
	0x0010:  c000 0211 0800 cde3 029a 00d4 629b 3062  ............b.0b
	0x0020:  0000 0000 cadd 0a00 0000 0000 1011 1213  ................
	0x0030:  1415 1617 1819 1a1b 1c1d 1e1f 2021 2223  .............!"#
	0x0040:  2425 2627 2829 2a2b 2c2d 2e2f 3031 3233  $%&'()*+,-./0123
	0x0050:  3435 3637                                4567
13:57:54.712252 IP (tos 0x0, ttl 64, id 12209, offset 0, flags [none], proto ICMP (1), length 84)
    192.0.2.17 > 192.0.2.24: ICMP echo reply, id 666, seq 212, length 64
	0x0000:  4500 0054 2fb1 0000 4001 c6ce c000 0211  E..T/...@.......
	0x0010:  c000 0218 0000 d5e3 029a 00d4 629b 3062  ............b.0b
	0x0020:  0000 0000 cadd 0a00 0000 0000 1011 1213  ................
	0x0030:  1415 1617 1819 1a1b 1c1d 1e1f 2021 2223  .............!"#
	0x0040:  2425 2627 2829 2a2b 2c2d 2e2f 3031 3233  $%&'()*+,-./0123
	0x0050:  3435 3637                                4567
13:57:55.736974 IP (tos 0x0, ttl 64, id 58951, offset 0, flags [DF], proto ICMP (1), length 84)
    192.0.2.24 > 192.0.2.17: ICMP echo request, id 666, seq 213, length 64
	0x0000:  4500 0054 e647 4000 4001 d037 c000 0218  E..T.G@.@..7....
	0x0010:  c000 0211 0800 0582 029a 00d5 639b 3062  ............c.0b
	0x0020:  0000 0000 913e 0b00 0000 0000 1011 1213  .....>..........
	0x0030:  1415 1617 1819 1a1b 1c1d 1e1f 2021 2223  .............!"#
	0x0040:  2425 2627 2829 2a2b 2c2d 2e2f 3031 3233  $%&'()*+,-./0123
	0x0050:  3435 3637                                4567
13:57:55.737021 IP (tos 0x0, ttl 64, id 12374, offset 0, flags [none], proto ICMP (1), length 84)
    192.0.2.17 > 192.0.2.24: ICMP echo reply, id 666, seq 213, length 64
	0x0000:  4500 0054 3056 0000 4001 c629 c000 0211  E..T0V..@..)....
	0x0010:  c000 0218 0000 0d82 029a 00d5 639b 3062  ............c.0b
	0x0020:  0000 0000 913e 0b00 0000 0000 1011 1213  .....>..........
	0x0030:  1415 1617 1819 1a1b 1c1d 1e1f 2021 2223  .............!"#
	0x0040:  2425 2627 2829 2a2b 2c2d 2e2f 3031 3233  $%&'()*+,-./0123
	0x0050:  3435 3637                                4567
13:57:56.760536 IP (tos 0x0, ttl 64, id 59027, offset 0, flags [DF], proto ICMP (1), length 84)
    192.0.2.24 > 192.0.2.17: ICMP echo request, id 666, seq 214, length 64
	0x0000:  4500 0054 e693 4000 4001 cfeb c000 0218  E..T..@.@.......
	0x0010:  c000 0211 0800 fb24 029a 00d6 649b 3062  .......$....d.0b
	0x0020:  0000 0000 9a9a 0b00 0000 0000 1011 1213  ................
	0x0030:  1415 1617 1819 1a1b 1c1d 1e1f 2021 2223  .............!"#
	0x0040:  2425 2627 2829 2a2b 2c2d 2e2f 3031 3233  $%&'()*+,-./0123
	0x0050:  3435 3637                                4567
13:57:56.760582 IP (tos 0x0, ttl 64, id 12590, offset 0, flags [none], proto ICMP (1), length 84)
    192.0.2.17 > 192.0.2.24: ICMP echo reply, id 666, seq 214, length 64
	0x0000:  4500 0054 312e 0000 4001 c551 c000 0211  E..T1...@..Q....
	0x0010:  c000 0218 0000 0325 029a 00d6 649b 3062  .......%....d.0b
	0x0020:  0000 0000 9a9a 0b00 0000 0000 1011 1213  ................
	0x0030:  1415 1617 1819 1a1b 1c1d 1e1f 2021 2223  .............!"#
	0x0040:  2425 2627 2829 2a2b 2c2d 2e2f 3031 3233  $%&'()*+,-./0123
	0x0050:  3435 3637                                4567
13:57:57.784715 IP (tos 0x0, ttl 64, id 59246, offset 0, flags [DF], proto ICMP (1), length 84)
    192.0.2.24 > 192.0.2.17: ICMP echo request, id 666, seq 215, length 64
	0x0000:  4500 0054 e76e 4000 4001 cf10 c000 0218  E..T.n@.@.......
	0x0010:  c000 0211 0800 98c5 029a 00d7 659b 3062  ............e.0b
	0x0020:  0000 0000 fbf8 0b00 0000 0000 1011 1213  ................
	0x0030:  1415 1617 1819 1a1b 1c1d 1e1f 2021 2223  .............!"#
	0x0040:  2425 2627 2829 2a2b 2c2d 2e2f 3031 3233  $%&'()*+,-./0123
	0x0050:  3435 3637                                4567
13:57:57.784771 IP (tos 0x0, ttl 64, id 12744, offset 0, flags [none], proto ICMP (1), length 84)
    192.0.2.17 > 192.0.2.24: ICMP echo reply, id 666, seq 215, length 64
	0x0000:  4500 0054 31c8 0000 4001 c4b7 c000 0211  E..T1...@.......
	0x0010:  c000 0218 0000 a0c5 029a 00d7 659b 3062  ............e.0b
	0x0020:  0000 0000 fbf8 0b00 0000 0000 1011 1213  ................
	0x0030:  1415 1617 1819 1a1b 1c1d 1e1f 2021 2223  .............!"#
	0x0040:  2425 2627 2829 2a2b 2c2d 2e2f 3031 3233  $%&'()*+,-./0123
	0x0050:  3435 3637                                4567
13:57:58.808615 IP (tos 0x0, ttl 64, id 59464, offset 0, flags [DF], proto ICMP (1), length 84)
    192.0.2.24 > 192.0.2.17: ICMP echo request, id 666, seq 216, length 64
	0x0000:  4500 0054 e848 4000 4001 ce36 c000 0218  E..T.H@.@..6....
	0x0010:  c000 0211 0800 2867 029a 00d8 669b 3062  ......(g....f.0b
	0x0020:  0000 0000 6a56 0c00 0000 0000 1011 1213  ....jV..........
	0x0030:  1415 1617 1819 1a1b 1c1d 1e1f 2021 2223  .............!"#
	0x0040:  2425 2627 2829 2a2b 2c2d 2e2f 3031 3233  $%&'()*+,-./0123
	0x0050:  3435 3637                                4567
13:57:58.808662 IP (tos 0x0, ttl 64, id 12899, offset 0, flags [none], proto ICMP (1), length 84)
    192.0.2.17 > 192.0.2.24: ICMP echo reply, id 666, seq 216, length 64
	0x0000:  4500 0054 3263 0000 4001 c41c c000 0211  E..T2c..@.......
	0x0010:  c000 0218 0000 3067 029a 00d8 669b 3062  ......0g....f.0b
	0x0020:  0000 0000 6a56 0c00 0000 0000 1011 1213  ....jV..........
	0x0030:  1415 1617 1819 1a1b 1c1d 1e1f 2021 2223  .............!"#
	0x0040:  2425 2627 2829 2a2b 2c2d 2e2f 3031 3233  $%&'()*+,-./0123
	0x0050:  3435 3637                                4567
13:57:59.832320 IP (tos 0x0, ttl 64, id 59629, offset 0, flags [DF], proto ICMP (1), length 84)
    192.0.2.24 > 192.0.2.17: ICMP echo request, id 666, seq 217, length 64
	0x0000:  4500 0054 e8ed 4000 4001 cd91 c000 0218  E..T..@.@.......
	0x0010:  c000 0211 0800 8d09 029a 00d9 679b 3062  ............g.0b
	0x0020:  0000 0000 04b3 0c00 0000 0000 1011 1213  ................
	0x0030:  1415 1617 1819 1a1b 1c1d 1e1f 2021 2223  .............!"#
	0x0040:  2425 2627 2829 2a2b 2c2d 2e2f 3031 3233  $%&'()*+,-./0123
	0x0050:  3435 3637                                4567
13:57:59.832366 IP (tos 0x0, ttl 64, id 12914, offset 0, flags [none], proto ICMP (1), length 84)
    192.0.2.17 > 192.0.2.24: ICMP echo reply, id 666, seq 217, length 64
	0x0000:  4500 0054 3272 0000 4001 c40d c000 0211  E..T2r..@.......
	0x0010:  c000 0218 0000 9509 029a 00d9 679b 3062  ............g.0b
	0x0020:  0000 0000 04b3 0c00 0000 0000 1011 1213  ................
	0x0030:  1415 1617 1819 1a1b 1c1d 1e1f 2021 2223  .............!"#
	0x0040:  2425 2627 2829 2a2b 2c2d 2e2f 3031 3233  $%&'()*+,-./0123
	0x0050:  3435 3637                                4567
13:58:00.855870 IP (tos 0x0, ttl 64, id 59650, offset 0, flags [DF], proto ICMP (1), length 84)
    192.0.2.24 > 192.0.2.17: ICMP echo request, id 666, seq 218, length 64
	0x0000:  4500 0054 e902 4000 4001 cd7c c000 0218  E..T..@.@..|....
	0x0010:  c000 0211 0800 8dac 029a 00da 689b 3062  ............h.0b
	0x0020:  0000 0000 020f 0d00 0000 0000 1011 1213  ................
	0x0030:  1415 1617 1819 1a1b 1c1d 1e1f 2021 2223  .............!"#
	0x0040:  2425 2627 2829 2a2b 2c2d 2e2f 3031 3233  $%&'()*+,-./0123
	0x0050:  3435 3637                                4567
13:58:00.855916 IP (tos 0x0, ttl 64, id 12944, offset 0, flags [none], proto ICMP (1), length 84)
    192.0.2.17 > 192.0.2.24: ICMP echo reply, id 666, seq 218, length 64
	0x0000:  4500 0054 3290 0000 4001 c3ef c000 0211  E..T2...@.......
	0x0010:  c000 0218 0000 95ac 029a 00da 689b 3062  ............h.0b
	0x0020:  0000 0000 020f 0d00 0000 0000 1011 1213  ................
	0x0030:  1415 1617 1819 1a1b 1c1d 1e1f 2021 2223  .............!"#
	0x0040:  2425 2627 2829 2a2b 2c2d 2e2f 3031 3233  $%&'()*+,-./0123
	0x0050:  3435 3637                                4567
13:58:01.883817 IP (tos 0x0, ttl 64, id 59682, offset 0, flags [DF], proto ICMP (1), length 84)
    192.0.2.24 > 192.0.2.17: ICMP echo request, 
